:020000040800F2
:100000002011002061020008A72100084D1B0008F4
:10001000091F0008B9170008C53E000800000000CD
:10002000000000000000000000000000CB300008CD
:10003000BB170008000000000D3000082B3200083C
:100040007B0200087B0200087B0200087B0200089C
:100050007B0200087B0200087B0200087B0200088C
:100060007B0200087B0200087B0200087B0200087C
:100070007B0200087B0200087B0200087B0200086C
:100080007B0200087B0200087B0200087B0200085C
:100090007B0200087B0200087B0200087B0200084C
:1000A0007B020008253400087B0200087B02000860
:1000B0007B0200087B0200087B0200087B0200082C
:1000C0007B0200087B0200087B0200087B0200081C
:1000D0007B020008BD3C0008013D00087B020008CF
:1000E0007B0200087B0200087B02000800F002F897
:1000F00000F0A6F814A696E8000CB244B344DA4522
:1001000001D100F09DF8BAE80F000FA696E8300084
:10011000A5EB040504EB0607AAEB0704A7F101070A
:100120004FEA15154FEA3414A4F10104AC4201D38F
:1001300000F086F813F0010F18BFFB1A43F001031B
:1001400000F001F8DBE7184724780000447800004D
:10015000103A24BF78C878C1FAD8520724BF30C8F3
:1001600030C144BF04680C60704700007047000055
:100170000023002400250026103A28BF78C1FBD8B0
:10018000520728BF30C148BF0B6070476E2900F08E
:10019000BF81702900F00183662906F094816529EA
:1001A00006F09181672906F08E81612906F08D8124
:1001B00003681B0A28BF41F08001692900F06C81A7
:1001C000642900F06981752900F066816F2900F0CB
:1001D0008F82782900F0CD82E92900F02982E42974
:1001E00000F02682F52900F02382EF2900F08C82AE
:1001F000F82900F0CC820368DB0928BF41F08001B8
:10020000632901F01180732901F01680E32901F0C0
:100210002180F32901F02680002070471FB501F0EE
:10022000BDF804000020002105F040F8401C60608B
:100230000020002105F050F8E0601FBD10B510BD92
:1002400001F087F81146FFF7E9FF03F03DFE01F0EA
:1002500069F903B4FFF7F2FF03BC01F06DF9000088
:100260000948804709480047FEE7FEE7FEE7FEE74A
:10027000FEE7FEE7FEE7FEE7FEE7FEE70448054986
:10028000054A064B704700002D320008ED000008BB
:10029000200B002020110020200D0020200D002028
:1002A0001CB50C46064B7B4469460090204600F086
:1002B00048F904460020694600F056F920461CBD66
:1002C000BF02000070B5064600F074F804680546E9
:1002D00030460A22002100F02FFB2C6070BD4FF049
:1002E000000200B5134694469646203922BFA0E886
:1002F0000C50A0E80C50B1F12001BFF4F7AF090792
:1003000028BFA0E80C5048BF0CC05DF804EB890082
:1003100028BF40F8042B08BF704748BF20F8022BC5
:1003200011F0804F18BF00F8012B70474FF0013CCF
:1003300050F8042B51F8043B9A4221D1A2EB0C0354
:10034000934313EACC1317D150F8042B51F8043B14
:100350009A4215D1A2EB0C03934313EACC130BD1B1
:1003600050F8042B51F8043B9A4209D1A2EB0C033C
:10037000934313EACC13DBD04FF00000704700BF6B
:10038000D01A01BAB1FA81F101F0180122FA01F094
:10039000CB40DBB2C0B2C01AC1F120012CFA01F38C
:1003A000D11A914311EAC311E6D1704770477047E3
:1003B0007047000000487047C000002010B5FFF7EC
:1003C000F9FF006810BD10B50446FFF7F3FF0460A5
:1003D00010BD70B5044685690068C10601D5302698
:1003E00000E02026C00707D070BDD4E901213046C7
:1003F0009047206A401C20626D1EF6D570BD70B516
:10040000044685690078C00707D170BDD4E9012191
:1004100020209047206A401C20626D1EF6D570BDDA
:1004200009684A0501D540B27047C905FCD500B23C
:10043000704709684A0501D5C0B27047C905FCD5A7
:1004400080B2704770B50C460546012A05D0287861
:10045000800600D5EA69002302E0012305E05B1C69
:10046000934202D2E05C0028F9D1A869E618C01ACC
:10047000A861286A184428622846FFF7AAFF04E00A
:10048000D5E9012114F8010B9047B442F8D328466E
:10049000FFF7B5FF70BD00002DE9F04106460024CE
:1004A00010687529314616A510D0FFF7B9FF00284E
:1004B00002DA404213A507E031688A0701D512A588
:1004C00002E0490704D511A5012401E0FFF7B1FFBF
:1004D00000210A2206F1240709E0B0FBF2FCB0FB80
:1004E000F2F302FB1C00303078541846491C0028F7
:1004F000F3D123462A463046BDE8F04100F0A5BAC4
:10050000000000002D0000002B0000002000000073
:1005100011680268006A530501D508700AE0D30526
:1005200001D5088006E0130603D5C217C1E9000211
:1005300000E008600120704701694A1C02610878E8
:10054000704700B58FB0CDE9013100210591054913
:100550007944CDE903101146684600F029F90FB03F
:1005600000BD0000E5FFFFFF0A6802F8010B0A600A
:10057000704700002DE9FF5F15468A460446DFF804
:10058000AC80F8440027D8E900103E46CDE90010C1
:1005900010E03AF816106A4602A800F0B6FE411CB8
:1005A00007D02178890603D5E269391891420DD820
:1005B0000744761C2078800602D5E069B84205DD44
:1005C000AE42E6DB3AF816000028E2D1A069C01B73
:1005D000A0612046FFF7FDFED8E90010CDE900102C
:1005E000002017E03AF818106A4602A800F08DFEC5
:1005F000B0F1FF3F81460BD000250DF1080B05E05F
:10060000D4E901211BF8050090476D1C4D45F7D337
:1006100008F10100B0428046E4DB206A38442062E1
:100620002046FFF7ECFEBDE8FF9F00003A600000A7
:100630002DE9F0418046D21D22F007020025D2E9C3
:100640000002F52915A614D0011E72F1000106DA88
:100650000023D0EB030063EB020211A608E0D8F8F8
:1006600000108B0701D50FA602E0490701D50EA6A1
:1006700001251146002408F1240704E000F0A0F948
:1006800030323A55641C50EA0102F7D12B4632460B
:1006900021464046BDE8F04100F0D7B90000000017
:1006A0002D0000002B0000002000000030B40021CD
:1006B00000F1240408E002F00705D208303542EAD0
:1006C0004372DB086554491C52EA0305F3D1046800
:1006D000002310A2250708D504F020040C4304D001
:1006E000C46901230CA2641EC46130BC00F0ADB922
:1006F00010B5044621461068FFF79BFE02462046CF
:10070000BDE810400023D1E7D21D22F00701D1E956
:100710000023CBE70000000030000000F0B40D46DD
:100720000188090502D5214C7C4402E01F4C7C4421
:100730000E34002100F1240608E002F00F07120930
:10074000E75D42EA03721B097754491C52EA03072A
:10075000F3D102780023120704D5702D06D009B119
:10076000022311342246F0BC00F06FB9012310348B
:10077000F8E770B504460D4621461068FFF759FEAC
:10078000024629462046BDE870400023C6E7D21D38
:1007900022F00703D3E90023C0E70368126843F09F
:1007A000200303600823C3610023B7E79C5E0000B9
:1007B0002DE9F05F894604464FF0000ADFF874B176
:1007C000FB44C0F820A02046E1688847002874D088
:1007D000252806D0D4E901219047206A401C2062D8
:1007E000F1E700265F462046E16888472028054655
:1007F00007DB312D05D2781910F8200C08B106431B
:10080000F1E7B00701D526F00406C4F81CA00027C4
:10081000C4F818A02A2D09D0284604F061FB38B38B
:1008200004EB8708303DC8F8185019E059F8041B4C
:10083000204604EB87029161E1688847012F054655
:1008400018D1E069002820DA26F020061DE0D8F84B
:10085000180000EB800005EB40003038C8F81800A5
:100860002046E1688847054604F03AFB0028EED1AF
:10087000012F0AD02E2D08D12046E16888477F1C21
:100880000546022F46F02006C4DBA069002803DAE3
:10089000404246F00106A061F00701D026F01006A4
:1008A0006C2D0BD0682D09D04C2D39D06A2D35D048
:1008B000742D35D07A2D33D016E038E0E1682F461C
:1008C00020468847B842054609D16C2F26D04FF400
:1008D0008060E168064320468847054604E06C2FA7
:1008E0001AD04FF4807006430DB3A5F141001928CA
:1008F00002D8203546F400664A462946204626603E
:100900004E46FFF743FC80B101280BD0F61D26F0C0
:10091000070000F1080956E74020E4E78020D8E707
:100920000020D6E706F104094DE7284652E7206A81
:10093000BDE8F09F2C5E00002DE9F04791460F4680
:1009400080460446002614F8015B2DB100F030F813
:100950000068405DC007F6D12B2D02D02D2D18D098
:10096000641E4A463946204600F080FC27B13968AB
:10097000A14201D1C7F800804FF0020471050BD5E8
:100980004042002803DDFFF715FD0460A007BDE825
:10099000F08746F48066E4E70028F8DAFFF70AFDFE
:1009A00004606FF00040F2E700487047C00000208C
:1009B00010B500F0F3FC001D10BD00BFF1480000B1
:1009C00030B5B0F10A0271F100034FEA900E4EEA21
:1009D000817EB0EB0E0061EB91014FEA101E4EEAF2
:1009E000017E10EB0E0041EB11114FEA102E4EEA82
:1009F000016E10EB0E0041EB11214FEA104E4EEA52
:100A0000014E10EB0E0041EB1141401841F1000185
:100A10004FEAD00040EA41704FEAD1014FEA810429
:100A200044EA907410EB800544EB01046D1944EB2B
:100A30000404521BA3414FF0000348BF0A3200D503
:100A400030BD401C41F1000130BD2DE9F0470D469D
:100A500099469246044600F124080168880604D5A8
:100A6000E06921F01001216000E00120A84201DDD1
:100A7000471B00E00027A1697A1902EB0900081A58
:100A8000A0612078C00602D42046FFF7A2FC002611
:100A900008E0D4E901211AF806009047206A401CBA
:100AA000761C20624E45F4DB2078C0060AD520462D
:100AB000FFF78FFC06E0D4E9012130209047206A3F
:100AC000401C2062381EA7F10107F4DC07E0D4E9DE
:100AD000012118F805009047206A401C2062281E5A
:100AE000A5F10105F3DC2046FFF789FC207800061C
:100AF00002D50220BDE8F0870120FBE72DE9FF4F7A
:100B00000C461E464FF0FF378BB0D2E90001DDF8EE
:100B100060800A908A46C1F30A5505B93D46002116
:100B200008464FF00000BAF1000F00F4400005DA6B
:100B300000EB80004FF4400101EA50004FEA905969
:100B4000B9F1010F00DDB9460A9850EA4A000ED00B
:100B500044F61050A5F2FF3545432F14B8F1000FAD
:100B60001ED07542291E1EDDC9F100021CE0B8F13D
:100B7000010F4FF0000001D0302103E0F24305E007
:100B80002154401CB042FBDB30460022002121549E
:100B90000B99C1F80880C1E900200FB0BDE8F08FC3
:100BA000BD1B6D1CDEE74A4600DA694206A800F06C
:100BB00047FC06AB93E8070003AB83E80700504609
:100BC0000A9903F04FFD8DE80700A0F500501F388B
:100BD00000900398002D0ADD42F21F014A460844A6
:100BE000002303A90390684603F0B8FF09E0A0F5CD
:100BF00000504A461F38002303A90390684603F0BB
:100C0000C2FF8DE807000004000C03D04FF0FF3056
:100C1000410800E01046B8F1000F03D00022009216
:100C200015461EE0751E05D4FFF7CAFE3032625528
:100C30006D1EF9D5B3460122084302D000227F1C65
:100C400004E02078302801D100227F1E002A099775
:100C500084D01DE0112D07DAFFF7B2FE3032625565
:100C60006D1C50EA0102F5D1084302D00098C8B1CA
:100C70000EE00021681E05E0235C625C6354225490
:100C8000401E491C8142F7DBAB46A81B401E099061
:100C9000002004F80B000B98099AC0F80880C0E9FE
:100CA000002B7AE711264FF0000857E72DE9F04FA7
:100CB00088460446D21D22F0070191B0D1E9000117
:100CC000CDE90A0104F096F802460B98C00F01D056
:100CD0002D2007E02068810701D52B2002E020218C
:100CE00001EAC000032A099001D0072A05DB034668
:100CF0004146204600F056FB0BE12078800601D5E6
:100D0000E06900E00620B8F1650F814606D0B8F131
:100D1000660F18D0B8F1670F70D131E00020B9F13B
:100D2000110F009001DB112301E009F101030AAA70
:100D300001A90CA8FFF7E2FEDDE90C70002609F11D
:100D40000105834647E001204B4600904FF00047E5
:100D50000AAA01A90CA8FFF7D1FEDDE90DB00C9994
:100D60005D46002610B909F101000D18B9EB050028
:100D700003D4C0F1FF3609F10105A5EB09002BE012
:100D8000B9F1010F01DA4FF001090020B9F1110F9B
:100D90000090484601DD112300E003460AAA01A99C
:100DA0000CA8FFF7ABFEDDE90C704D46002683462C
:100DB000207800070AD4AB4500DA5D4601A8012D72
:100DC00004DD411911F8011C302907D04F4502DA22
:100DD00017F1040F04DA012082460FE06D1EEEE7E2
:100DE000002F02DCED1B3E4403E0781CA84200DD2E
:100DF0007D1CB81B00F1010A4FF000472078000766
:100E000003D4AA4501DB4FF0FF3A0021B7F1004FB0
:100E10000DF143088DF8431024D002202B23002F1E
:100E200001DA7F422D230A21021EA0F1010000DC1D
:100E30005FB197FBF1FC97FBF1F201FB1C7C1746BD
:100E40000CF1300C08F801CDEEE7A8F101000370B9
:100E50002188090501D5452100E06521A0F101089F
:100E600000F8011C09980FA9A1EB0807FF1D00B1AC
:100E70000120411901EBEA70A1693844081A401EAB
:100E8000A0612078C00602D42046FFF7A2FA099894
:100E900028B1D4E901219047206A401C20622078C3
:100EA000C00622D52046FFF794FA1EE0002E04DB90
:100EB000B34502DD01A8805D00E03020D4E90121C6
:100EC0009047206A401C2062761CAAF101005FEA6C
:100ED000000A0AD100F062FAC0680168405CD4E9F7
:100EE00001219047206A401C2062281EA5F10105BF
:100EF000DCDC07E0D4E9012118F8010B9047206AF7
:100F0000401C2062381EA7F10107F3DC2046FFF7E2
:100F100076FA032011B041E62DE9F04F04460D4664
:100F2000D21D22F0070089B0D0E900974846394623
:100F300003F060FF0246F80F01D02D2307E0206880
:100F4000810701D52B2302E0202101EAC0038DF89F
:100F500020300BB1012000E00020032A824601D09E
:100F6000072A04DB2946204600F01CFA3FE12078DE
:100F7000800601D40D2500E0E569C7F30A560D2D62
:100F800049DA00214FEA175B08464FF00000002FB6
:100F900000F4400007DA00EB80004FF4400100EB62
:100FA000D07001EA60008115012901DD4FF0FF31A9
:100FB00000224FEA850CBCF1180F06D31346ACF1A2
:100FC00018004FF08052C24003E04FF4801323FA20
:100FD0000CF30CF10C0CBCF1200F04D3ACF1200C81
:100FE00009FA0CF001E007FA0CF000294FF0004874
:100FF00001DD18B90FE00ED140450CD319EB020901
:101000005F4121B9404502D19F4329EA0209BBEB68
:10101000175F00D0761C2088000502D57B487844F5
:1010200002E07A487844193808AA302302F80A30D6
:10103000037C0AF10101002E0AF1020A53546A46A8
:1010400002DC4FF0300101E04FF031014FF00108B8
:101050008DF8001002D0A6F2FF3603E059EA4701EE
:1010600000D06B4E002D02DC2178090704D54FF02B
:1010700002082E218DF80110C44600210BE0C7F3B1
:1010800003433F01C35C491C6D1E02F8083005296B
:1010900008F1010801DA002DF1DC00210CE000EB81
:1010A0001973491C1B786D1E082902F808304FEA95
:1010B000091908F1010801DA002DF0DC21688B061E
:1010C00002D516E0A8F10108E04505DD02EB0803B2
:1010D00013F8013C302BF5D0B8F1000F09DD02EB1D
:1010E000080313F8013C2E2B03D1090701D4A8F102
:1010F0000108002D05DD3E2102F808106D1E08F1E3
:101100000108407C002E02F8080008F1010804DA0A
:101110002D20764202F8080002E02B2002F8080099
:101120000A214FF47A70864208F101080BDB96FB26
:10113000F0F3303302F8083096FBF0F308F10108C1
:1011400000FB136601E0642E0CDB642096FBF0F3D9
:10115000303302F8083096FBF0F308F1010800FB89
:10116000136601E00A2E06DB96FBF1F0303002F840
:10117000080008F1010896FBF1F001FB1060303027
:1011800002F80800A16908F1010808EB050202EB6A
:101190000A00081AA0612078C00602D42046FFF792
:1011A00018F9216A08AE01EB0A00206204E0D4E9D4
:1011B000012116F8010B9047BAF1010AF7D2207805
:1011C000C00602D52046FFF704F96E4609E016F87E
:1011D000010B3E280FD0D4E901219047206A401C22
:1011E0002062B8F10108F2D22046FFF708F909B0F1
:1011F0000320BDE8F08F206A2844206203E0D4E990
:101200000121302090476D1EEBD3F8E7995600007E
:1012100002FCFFFF10B5436913B1AFF3008001E09A
:10122000FFF710F9012010BD127800F124010A70B7
:1012300000224A700122EDE711684FF0FF32E9E722
:1012400010B5436913B1AFF3008001E0FFF792F9E5
:10125000012010BD128800F1240182840022C28482
:101260000122EDE711684FF0FF32E9E72DE9F05F69
:10127000824615468B4600270AF10104B9460078DC
:10128000302801D09DB113E014F8010B0127782814
:1012900003D0582801D045B10AE00DB1102D07D177
:1012A000002714F8010B102502E0082500E00A25AC
:1012B0000026B0460EE005FB080005FB06F10127FD
:1012C0001FFA80F801EB1046B6F5803F00D3B9460F
:1012D00014F8010B294600F0A5F80028EBDABBF161
:1012E000000F05D00FB1641E00E05446CBF800405B
:1012F000B9F1000F06D0FFF75DF802210160C81EAA
:10130000BDE8F09F48EA0640FAE72DE9F0411646AD
:101310000C460546FFF74CFB036893F801010128D2
:1013200007D0FF2C12D8185D80B101202C70BDE8C9
:10133000F081D3F807013246214603F20713C7189C
:101340002846BC46BDE8F041002360474FF0FF301F
:10135000EDE77546FFF728FBAE46050069465346A4
:1013600020F00700854618B020B5FEF787FFBDE8DE
:1013700020404FF000064FF000074FF000084FF0FC
:10138000000BAC46ACE8C009ACE8C009ACE8C00949
:10139000ACE8C00921F007018D467047004870474E
:1013A000E00000202DE9F0411F46044603260168B5
:1013B000072A01F4006004DB08B116A505E016A5B4
:1013C00003E008B115A500E015A521F0100020608C
:1013D000A069C01EA0610FB1401EA0612046FEF7AB
:1013E000F8FF4FB1D4E9012138469047206A401CEC
:1013F0002062C01C206206E0206AFAE7D4E90121DD
:1014000015F8010B9047761EF8D22046FEF7F7FF3D
:10141000BDE8F0814E414E006E616E00494E4600BF
:10142000696E66003A2800D2303820F02002412A46
:1014300001D3A2F13700884201D34FF0FF3070474B
:101440002DE9F047814616468AB0354878440DC8E4
:101450008DE80D0032487844801C03AC0DC884E848
:101460000D0041F69B300844372190FBF1F290FBD0
:10147000F1F5A5F1800501FB12041B3C02D5644285
:10148000012000E00020DFF898A080460027FA4401
:10149000AAF1BE0A0EE0E0070AD03246684607EB22
:1014A000470101230AEB810103F06DFB8DE8070082
:1014B00064107F1C002CEED1194F7F44AE3F19E021
:1014C000E80715D007EB04100DF1180A90E80E009C
:1014D0008AE80E00C068F04201D19819089032469F
:1014E000012306A903A803F04EFB03AB83E8070022
:1014F0006D10641C002DE3D14FF0010332466946A4
:10150000B8F1000F03A802D003F028FB01E003F0BC
:101510003AFBC9E90001C9F808200AB0BDE8F08724
:10152000FC52000010B50446AFF300802046BDE831
:101530001040FEF78EBE000001491820ABBEFEE74A
:1015400026000200704780B540F2AE10C2F20000E3
:101550000021018040F2AC10C2F20000018040F294
:101560004810C2F200006421FEF7B9FE80BD70B5DC
:1015700086B04FF40030012101F049FD0420012123
:1015800001F051FD44F200440420C4F20004C1F60D
:10159000030004F5444505AE05902846314600F0A9
:1015A0002DFA0820C4F6030005902846314600F0C5
:1015B00025FA4FF41650019000204FF44021ADF869
:1015C0001000CDE9020101A9204602F017FC2046D7
:1015D00040F22551012202F0FAFB4FF4A06001F025
:1015E00044F840F22610C0F201100090684601F065
:1015F0000DF82046012102F0C2FB06B070BD0000CC
:10160000F0B540F2AE1040F2AC1CC2F20000C2F2E3
:10161000000C0188BCF8003048F21F52C81A643030
:10162000C5F2EB1280FB02277A1102EBD772642716
:1016300002FB170240F2B010C2F200007AB340F28F
:1016400048141FFA82FE0022C2F200040025002680
:101650008B4205D1012E0FD100270B4614E000BFAD
:10166000E75C622B03F1010388BF00235B2FACF81A
:10167000003003D100250AE00B4609E05D2F08BFCA
:10168000012E09D0012E03D1AEB2013587550126B6
:1016900001327245DCD302E0A9B20022425440F28A
:1016A00014220021C2F2000200230026B7B29DB22C
:1016B000C75D05EB85058CB202EB85052C2F254413
:1016C00004D047B101312F7003E000BF0021297021
:1016D00001330136EAE700202870F0BD2DE9F04122
:1016E00040F2AE10C2F20000018840F2AC10C2F22B
:1016F0000000008848F21F5C091A6431C5F2EB1C37
:1017000081FB0C235A1102EBD372642302FB1311E9
:10171000002459B31FFA81FE40F24811C2F20001C1
:1017200001240123014400226FF063080026BEF16A
:10173000010F88BF734600BFA0FB0C756D0905FB48
:1017400008F54F5D5B2F01D1012603E05D2F08BF37
:10175000012E0BD0013272454FF0000401F101015E
:1017600038BF0124934200F10100E5D104F00100EB
:10177000BDE8F08110B544F20044C4F20004014613
:10178000204602F09AFB00BF2046802102F001FBB8
:101790000028F9D010BD0000B0B50446007848B16B
:1017A000002500BFC0B2FFF7E5FF0135E8B2205CBD
:1017B0000028F7D1B0BD0000FEE77047B0B540F299
:1017C00000440128C4F2000403D002280AD104F521
:1017D0008064204602F08CF805462046002102F085
:1017E000DEF900E0002528B2B0BD2DE9F04F87B04A
:1017F0000220012101F00BFC0420012101F013FC67
:1018000040F2004540F2C00BC4F200050DF118098A
:10181000C4F6030B05F582304946CDF818B000F048
:10182000EDF80DF10E0A4FF6FF78002628465146D6
:10183000CDF81280CDF80E608DF8166002F0B1F987
:1018400001AC204602F01CF90F2728462146ADF8CE
:101850000460ADF80C7002F059F80420ADF80400F3
:1018600028462146ADF80C7002F050F828460321B6
:101870000022002302F024F82846012102F017F884
:101880000420012101F0C3FB0820012101F0CBFB62
:1018900005F584304946CDF818B000F0AFF805F5ED
:1018A000806528465146CDF81280CDF80E608DF83F
:1018B000166002F076F9204602F0E2F8284621464A
:1018C000ADF80460ADF80C7002F020F80420ADF81B
:1018D000040028462146ADF80C7002F017F828469F
:1018E00003210022022301F0EBFF2846012101F031
:1018F000DEFF07B0BDE8F08FB0B504464FF43020EE
:1019000000F050F8042818BFB0BD42F21005C4F230
:101910000205286840F0020028606C60286840F0EA
:10192000400028604FF4302000F03CF8296841F670
:10193000FD7211402960B0BD42F21000C4F20200F5
:10194000016841F080010160704770B505464FF4B1
:1019500000500C4600F026F8042818BF70BD42F273
:101960001006C4F20206306840F0010030604FF407
:1019700000502C8000F016F8316841F6FE721140DC
:10198000316070BD42F2040040F22311C4F2020043
:10199000C4F26751016048F6AB11CCF6EF5101601B
:1019A0007047000042F20C01C4F202010A68D2073B
:1019B00009D10A6852070ED40968C9064FF003011D
:1019C00058BF042115E020B10A68D20705D00138BC
:1019D000FAD101210DE002210BE00A68520706D47A
:1019E0000968C9064FF0030158BF042100E0022135
:1019F0000138002808BF052108467047CA7802F060
:101A00000F0CD30644BF8B784CEA030C2DE9F0474A
:101A100009880B0621D086465EF8143B00F11008B9
:101A200000254FF0010A4FF00F0900240AFA04F7CD
:101A30000F420CD009FA05F6B3430CFA05F633430E
:101A4000282A764602D0482A01D14646376001341A
:101A5000082C05F10405E9D10360B1F5807F38BF9A
:101A6000BDE8F087436800F1100E00F1140A00256C
:101A70004FF480794FF00F08002700BF09FA07F6EE
:101A80000E420CD008FA05F4A3430CFA05F42343E4
:101A9000282A544602D0482A01D1744626600137CC
:101AA000082F05F10405E9D14360BDE8F087B0B522
:101AB00040F2040CC4F2010C0CF118031A46B0F108
:101AC000FF3FC4BF0422C4F20102146800F44012B4
:101AD000B2F5401F1FFA80FE08D1DCF8005024F058
:101AE000706225F07064CCF8004011E0C20206D4A8
:101AF0006FF00F0202EA50420EFA02F204E0C0F365
:101B00000342032505FA02F224EA020242F070625F
:101B10006FF00F0404EA504400290EFA04F518BFD0
:101B20002A43B0F1FF3FC8BF63461A60B0BD80686A
:101B3000084018BF0120704741617047016170473C
:101B40001023002A08BF1423C1507047FEE740F25B
:101B5000A422C2F20002135C0B4204BF00207047B3
:101B600001291CBF23EA010111540120704740F2F2
:101B7000A420C2F2000000210160704710B50328C4
:101B800019D8DFE800F0021C0A1040F60000C4F289
:101B9000010000F5806002210AE040F60000C4F276
:101BA0000100202104E040F60000C4F201001021F1
:101BB000FFF7BDFF08B100240EE001240CE040F661
:101BC0000000C4F2010000F5806001210124FFF74C
:101BD000AEFF002818BF0024204610BDB0B582B06B
:101BE0000420012101F01FFA0820012101F01BFA55
:101BF000032040F60004C4F60300C4F2010401AD62
:101C0000019004F580602946FFF7F8FE3020ADF81A
:101C1000040020462946FFF7F1FE02B0B0BD0000E7
:101C20002DE9F04F81B040F2B6240020C2F200044A
:101C300034F8101011B1013924F8101001300428C3
:101C4000F6D140F2A820C2F2000040F2BE2902788C
:101C5000C2F20009042189F80010511CCAB2142AEA
:101C60000170C0F076804FF0000840F2A92B40F2DE
:101C7000AD2640F2A42540F2B12A80F80080C2F2DD
:101C8000000BC2F20006C2F20005C2F2000A0020F8
:101C900089F80080C0B21BF800103154FFF76EFFC6
:101CA00099F800106B5C0BF8010038B1775C43F0D9
:101CB00001026A545FB943F0030207E0775C03F066
:101CC000FE02012F6A5402D142F004026A541AF84B
:101CD0000130042B36D8DFE803F0031C141A0A0085
:101CE00080B34FF47A7024F81100012028E010B37B
:101CF00034F8110030BB642024F8110042F0400099
:101D000010E090B142F010006854032018E0C8B908
:101D100011E090B134F81100A0B9642024F811004A
:101D200042F02000685404200AE034F8110048B959
:101D300042F008006854002002E024F811800220DC
:101D40000AF80100481CC1B2042989F80000FFF418
:101D5000A1AF01B0BDE8F08F10B582B01020012115
:101D600001F061F942F2000041F20004C1F2030007
:101D7000C4F20104019001A92046FFF73FFE20466E
:101D80004FF40051FFF7DAFE02B010BD41F200003F
:101D9000C4F201004FF40051FFF7D0BE41F2000041
:101DA000C4F201004FF40051FFF7C6BE40F21470B8
:101DB000C2F20000418840F24602C2F200021180E5
:101DC000818840F29E22C2F200021180D0F8060003
:101DD00040F23811C2F20001086070472DE9F0436B
:101DE00085B015460E46DDE90C9807460DF1060153
:101DF0003B200E221C4600F041F8BDF80600BDF85D
:101E0000081000BA000C388008BABDF80A10000C9F
:101E1000308008BABDF80E10000C288008BABDF852
:101E20001010000C208008BABDF81210000CA9F8A0
:101E3000000008BA000CA8F8000005B0BDE8F08367
:101E400080B500F0D7F86B20012100F044F86C2039
:101E5000002100F040F81920072100F03CF81A207A
:101E6000002100F038F81B20182100F034F81C2065
:101E70001821BDE8804000F02EB80000F0B581B018
:101E800014460D46064600F056F9D02000F032F90F
:101E900000F0CAF8304600F02DF900F0C5F800F067
:101EA0004AF9D12000F026F900F0BEF874B1661EA0
:101EB000002700BF00F0D8F8E8550020BE4298BFC8
:101EC000012000F0FDF80137BC42F3D101B0BDE8BC
:101ED000F04000F04FB9B0B50C46054600F02BF9C4
:101EE000D02000F007F900F09FF8284600F002F932
:101EF00000F09AF8204600F0FDF800F095F8BDE8F3
:101F0000B04000F037B90000FEE780B582B008208D
:101F1000012101F088F84FF20000C1F203000190A6
:101F200040F60040C4F2010001A9FFF767FD01F08F
:101F30001FF802B080BDB0B502280C4614D00128AD
:101F400018BFB0BD40F60045C4F20105002C28467C
:101F50004FF400511AD4FFF7EFFD28464FF480519B
:101F6000FFF7ECFDA0B21AE040F60045C4F201050F
:101F7000002C28464FF4004115D4FFF7DFFD28461A
:101F80004FF48041FFF7D8FDA0B215E0FFF7D6FD72
:101F900028464FF48051FFF7CFFD604280B2BDE884
:101FA000B04001F029B8FFF7C7FD28464FF4804143
:101FB000FFF7C4FD604280B2BDE8B04001F021B837
:101FC00010B50446FFF7DEFC2046FFF795FCBDE8A0
:101FD0001040FFF7B1BCB0B50C460546FFF7D2FC88
:101FE00028462146FFF7B1FCBDE8B040FFF7A4BC8E
:101FF0000088704710B582B00820012101F013F865
:1020000040F6004040F60044C1F20340C4F201042F
:10201000019001A92046FFF7F1FC20464FF44061F2
:10202000FFF78CFD02B010BDB0B540F60044C4F21D
:10203000010420464FF400610122FFF781FD204694
:102040004FF480610122FFF77BFD20464FF40061D1
:10205000FFF76DFD054620464FF480610022FFF733
:102060006FFD2846B0BD0000F0B581B040F60044D9
:10207000C4F2010420464FF400610122FFF760FD25
:1020800000258026002700BF20464FF480610122F2
:10209000FFF756FD20464FF40061FFF748FD26FA92
:1020A00005F1002818BF0F4320464FF4806100223D
:1020B000FFF746FD0135082DE6D1F8B201B0F0BDBD
:1020C00010B540F60044C4F20104024620464FF425
:1020D0000061FFF735FD20464FF480610122FFF7D4
:1020E0002FFD20464FF480610022BDE81040FFF72D
:1020F00027BD000070B540F600450446C4F2010556
:10210000002600BF04FA06F0C0B2C20928464FF408
:102110000061FFF715FD28464FF480610122FFF7AB
:102120000FFD28464FF480610022FFF709FD0136BC
:10213000082EE7D170BD10B540F60044C4F201048A
:1021400020464FF400610122FFF7FAFC20464FF4CD
:1021500080610122FFF7F4FC20464FF40061002269
:10216000FFF7EEFC20464FF480610022BDE81040EE
:10217000FFF7E6BC10B540F60044C4F20104204667
:102180004FF400610022FFF7DBFC20464FF4806132
:102190000122FFF7D5FC20464FF400610122BDE883
:1021A0001040FFF7CDBC704710B540F60004C4F2F4
:1021B000010420464FF400410022FFF7C1FCE22059
:1021C00000F03AF920464FF400410122BDE81040EA
:1021D000FFF7B6BC10B540F60004C4F20104204677
:1021E0004FF400410022FFF7ABFCE12000F024F99E
:1021F00020464FF400410122BDE81040FFF7A0BC8B
:1022000070B582B00120012100F00DFF40F20020E6
:10221000C0F230000121FFF74AFC0420012100F048
:1022200002FF0820012100F0FEFE40F6004448F2C3
:102230000010C4F20104C1F20300A4F5806501AEF0
:10224000019028463146FFF7D9FB2820ADF804005D
:1022500020463146FFF7D2FB1020C4F60300019060
:1022600020463146FFF7CAFB28464FF48071002212
:10227000FFF766FC28464FF400410122FFF760FC9F
:10228000204608210022FFF75BFC20462021002287
:10229000FFF756FC02B070BD80B5FFF7B1FF00201C
:1022A000082100F053F901203F2100F04FF90220EE
:1022B000012100F04BF90320032100F047F904202D
:1022C000032100F043F90520022100F03FF9062028
:1022D0000E2100F03BF91120202100F037F940F2E7
:1022E0003C01C2F200010A20052200F04BF9FFF781
:1022F00071FFFFF759FF0720702100F027F9BDE8B3
:10230000804000F07BB8B0B540F60005C4F201058E
:10231000044628464FF400410022FFF711FC2046F6
:1023200000F08AF8FF2000F087F8044628464FF4B2
:1023300000410122FFF704FC2046B0BD70B540F615
:102340000004C4F201040D46064620464FF4004145
:102350000022FFF7F5FB612000F06EF83DB100BFF1
:10236000FF2000F069F8013D06F8010BF8D1204686
:102370004FF400410122BDE87040FFF7E1BBB0B56A
:1023800040F60004C4F2010420464FF4004100224C
:10239000FFF7D6FBFF2000F04FF8054620464FF42C
:1023A00000410122FFF7CCFB2846B0BD10B5FFF776
:1023B000E6FF04460020FFF7A6FF800703D4FFF7DF
:1023C0006BFF032010BD04F03000302803D1FFF76D
:1023D00063FF022010BD60065CBF002010BD40F20C
:1023E000BF20C2F200002021FFF7A8FF07204021F4
:1023F00000F0ACF8FFF7D8FE012010BD10B540F694
:102400000004C4F2010420464FF480710022FFF75B
:1024100097FB0020FFF777FFFF2808BF10BD40F0B3
:102420000301002000F092F820464FF48071012251
:10243000BDE81040FFF784BB70B540F60045044688
:102440000026C4F2010500BFE0B2C20928462021DF
:10245000FFF776FB284608210122FFF771FB28468B
:102460001021FFF764FB002818BF012040EA440454
:10247000284608210022FFF763FB072E06F101061C
:10248000E2D3E0B270BD000010B540F24104C2F2E8
:10249000000410202146052200F074F80A2021468D
:1024A000052200F06FF840F2DF20C2F20000202188
:1024B00000F08CF800F02BF84DF6F004CFF6FF7426
:1024C000FFF75DFF013409D200F03001302907D059
:1024D000C10607D48006F3D5012406E0042402E0F7
:1024E000032400E00224FFF7D7FE0720302100F08C
:1024F0002DF8FFF76FFE40F23C01C2F200010A2006
:10250000052200F03FF8FFF779FF204610BD10B517
:1025100040F60004C4F2010420464FF4807100220A
:10252000FFF70EFB0020FFF7EEFEFF2808BF10BDEF
:1025300000F0FC00811C002000F008F820464FF459
:1025400080710122BDE81040FFF7FABA70B540F67D
:102550000006C4F201060C46054630464FF4004121
:102560000022FFF7EDFA45F02000FFF765FF204657
:10257000FFF762FF30464FF400410122BDE8704092
:10258000FFF7DEBAF0B581B040F60004C4F20104F2
:1025900015460E46074620464FF400410022FFF73D
:1025A000CFFA47F02000FFF747FF2DB116F8010BD7
:1025B000FFF742FF013DF9D120464FF400410122CF
:1025C00001B0BDE8F040FFF7BBBA000070B540F6BF
:1025D0000004C4F201040D46064620464FF40041B3
:1025E0000022FFF7ADFAA020FFF726FF35B100BFAC
:1025F00016F8010BFFF720FF013DF9D120464FF4FB
:1026000000410122BDE87040FFF79ABA10B5C178C9
:1026100000294EF20011CEF200011AD04EF60C52F3
:10262000CEF200021268072323EA12220F23C2F11E
:10263000040C23FA02F24378847890F800E003FA5D
:102640000CF322401A43120101EB0E0383F800231E
:1026500000E080310078012300F01F0203FA02F24B
:10266000C0F3421041F8202010BD40F080604EF6CB
:102670000C5140F0FD70CEF200010860704780B54B
:1026800040F20030C2F200004FF48061FDF727FEF7
:1026900080BD00007BB32DE9F04740F2003803EB2A
:1026A000010C13184FF0010EC2F20008894600BF5A
:1026B000CAB109F007040EFA04F4CD086FEA040A5F
:1026C0001FFA89F608EBC517054604463F2E06D8C3
:1026D000A1B27F2903D8795D01EA0A017955013455
:1026E00025B2AB42F2DC09F101090FFA89F18C4500
:1026F000DEDCBDE8F04770472DE9F04F84B0994229
:1027000021D113469042B8BF0346C8BF024601F02C
:10271000070001268FB206FA00F040F20036FF08EB
:10272000C2F2000606EBC71712B200BF3F2905D858
:102730009EB27F2E02D8BD5D0543BD5501331BB24D
:102740009342F3DDFAE0904223D11A469942B8BF92
:102750000A46C8BF0B4640F200364FF6F87C012708
:10276000C2F200061BB200BF7F280DD895B23F2DE4
:102770000AD802EA0C0506EB051502F00704295CED
:1027800007FA04F421432954511C0AB29A42EBDDA2
:10279000D4E002DD9046039303E0804603911046A7
:1027A0001946039F4FF0000C8F423E460C46C8BFAF
:1027B0004FF0010C7B42C1F1000B8F42C4BF1E469B
:1027C0005C4625B232B2AD1AB8F1800F4FF000026C
:1027D0004FF00009A0EB080E38BF0122402F38BF90
:1027E0004FF0010902EA090A75450195CDF800E0AC
:1027F00013DD039AA01B8A424FEA4E07AEEB000995
:10280000C0EB4E04D8BF8B465846D8BF1346BAF12A
:10281000000FC24611D1C24628E0A21B5700A2EB0E
:102820000E09CEEB4204039A4FF0000C8A42D8BF47
:10283000134652469A464346BAB1039E4FF6F87283
:102840003D4640F200373240C2F2000707EB021269
:1028500006F007064FF0010E2F4612F808500EFA48
:1028600006F6354302F8085000E043460FFA80FBB5
:102870001AB25A4562DA029122B2B2F1FF3F3E46E5
:102880001D46C4BF4FEA49060AF1010ABCF1000F18
:1028900003F101030CD0AAB24FF6C070824249D3B3
:1028A0001FFA8AF27F2A45D8ED43524626E000BF40
:1028B000039888420ADD9AB27F2A3BD8CAF1000504
:1028C000AAB2402A1A4619D334E000BFDDE900203D
:1028D000904209DD1FFA8AF27F2A2BD89AB2402A49
:1028E00052461D460AD325E09AB27F2A22D81FFA03
:1028F0008AF23F2A1A4655461CD800BF4FF6F87098
:1029000005EA000840F20030C2F2000092B2E6464A
:10291000CC46B94600EB081705F007051946BB5C25
:10292000012000FA05F52B43BB540B4602994F4694
:10293000E146F4461AB25A4534449DDB04B0BDE882
:10294000F08FB0B582B00820012100F06CFB40F29E
:10295000001040F60044C1F20340C4F2010401AD8E
:10296000019020462946FFF749F84FF40070ADF872
:10297000040020462946FFF741F820464FF48071B5
:102980000122FFF7DDF820464FF400710122FFF726
:10299000D7F802B0B0BD000070B540F6004405465F
:1029A000C4F20104002600BF05FA06F0C0B2C20955
:1029B00020464FF40071FFF7C3F820464FF48071B2
:1029C0000122FFF7BDF820464FF480710022FFF787
:1029D000B7F80136082EE7D120464FF48071012266
:1029E000FFF7AEF820464FF480710022BDE870403A
:1029F000FFF7A6B810B540F60044C4F20104204623
:102A00004FF400710122FFF79BF820464FF48071CC
:102A10000122FFF795F820464FF400710022FFF7DE
:102A20008FF820464FF480710022BDE81040FFF778
:102A300087B810B540F60044C4F2010420464FF4B4
:102A400000710022FFF77CF820464FF480710122CC
:102A5000FFF776F820464FF400710122BDE81040E0
:102A6000FFF76EB880B5FFF76CFFAE2000F0D5F928
:102A7000D52000F0D2F9802000F0CFF9A82000F096
:102A8000CCF93F2000F0C9F9D32000F0C6F90020AE
:102A900000F0C3F9402000F0C0F9A12000F0BDF91A
:102AA000C82000F0BAF9DA2000F0B7F9122000F0DF
:102AB000B4F9812000F0B1F9CF2000F0AEF9D920AF
:102AC00000F0ABF9F12000F0A8F9DB2000F0A5F947
:102AD000302000F0A2F9A42000F09FF9A62000F019
:102AE0009CF98D2000F099F9142000F096F9AF20A0
:102AF00000F093F940F20030C2F200004FF4806120
:102B0000FDF7EDFBBDE8804000F06CB9F0B5C1B059
:102B100001AF14460D46064646AA384619460092AD
:102B2000FDF7BEFB304629463A46234600F08EF8B4
:102B300041B0F0BD80B582B0062B0CD0082B1AD165
:102B400047F26A23C0F6000303EB0212A2F5007CF1
:102B5000082210230BE047F2300302EB4202C0F6DA
:102B6000000303EB4202A2F1C00C06220823CDF8B9
:102B700000C000F003F802B080BD00002DE9F04F66
:102B800085B098460F4602900492FFF783FDA8F1A6
:102B9000010081B200EB5130C0100390F813C0F374
:102BA0004230384401B2C91001EBE73120F0070090
:102BB00001910821381A01EA173108441FFA80FEF2
:102BC000C0F108001FFA80F800204FF0000B00BF92
:102BD000049989B3049C0E9A5FFA8BF104FB0127D8
:102BE000019A40F200331144C2F200031044DDF8B0
:102BF00008A003EBC115411CBAF17F0F17D80728B5
:102C000009D897F800C015F80A900CFA0EF242EABB
:102C1000090205F80A20072909D83A7805EB0A03C2
:102C200093F8806022FA08F2324383F8802001375B
:102C3000013C0AF1010ADFD10BF1010B03995FFAA4
:102C40008BF08142C4D205B0BDE8F08F2DE9F04F82
:102C50008BB0984613780791002B069000F0BE8049
:102C60000DF12706B01C0590F01C0390301D02905A
:102C700047F2300046F2847AC0F600001546C0F6EE
:102C8000000ABA304FF0250B00244FF000090490E1
:102C900058B2B0F1FF3FDAB213DC02F0E000C02816
:102CA00009F101001DD002F0F001E02926D002F068
:102CB000F801F02937D081B26B5C8146002BE7D157
:102CC0008CE000208DF828000698079920448DF8A4
:102CD000273000B2434609F10109FFF72BFF4444B6
:102CE00076E080B2285C8DF82730002876D08DF809
:102CF00028000598089409F1020930E080B2285CA8
:102D00008DF82730002869D009F1020189B2695C89
:102D10008DF82800002961D00398089409F103096F
:102D20008DF829101BE080B2285C8DF82730002830
:102D300054D009F1020189B2695C8DF8280000299C
:102D40004CD009F1030080B2285C8DF829100028CE
:102D500044D08DF82A00029809F1040908949AF8E1
:102D6000001000294FF00001017011D000245746D7
:102D700038463146FDF7DAFA58B10134A0B200FB0B
:102D80000BF11AF8011000FB0BA70029F0D100E0AD
:102D90005746B8F1060F0FD0089CB8F1080F17D1AD
:102DA000069807992044053700B210221023009797
:102DB000FFF7E4FE10340BE00698089C07992044C6
:102DC000049F00B2062208230097FFF7D7FE0634BF
:102DD0001FFA89F02B5C002B7FF45AAF0BB0BDE8D3
:102DE000F08F0000B0B540F200340025C2F20004BC
:102DF00045F0B000C0B200F010F8102000F00DF85F
:102E0000002000F00AF82046802100F017F8013574
:102E1000082D04F18004EBD1B0BD10B50446FFF7D6
:102E2000E9FD7820FFF7B8FD0020FFF7B5FD20464B
:102E3000FFF7B2FDBDE81040FFF7FBBDB0B50C4693
:102E40000546FFF7D7FD7820FFF7A6FD4020FFF7E6
:102E5000A3FD2CB115F8010BFFF79EFD013CF9D144
:102E6000BDE8B040FFF7E5BD80B500F11C010022D0
:102E7000C0E90022C0E9022208461421FDF72FFA1A
:102E800080BD2DE9F047C169044690E80101D4E90D
:102E900004762162414603F0A1FA39460546E06115
:102EA00003F0D0F98246606230460021002703F02B
:102EB00001F840B9A76A3046294603F0C3F93946FC
:102EC00002F06CFF0746266B38463146A76203F0D6
:102ED0000DF808B93746A662D4F83490384649460A
:102EE00002F0FDFF10B94F46C4F82890A068A5690C
:102EF000414603F073FA294603F0A4F90546E0625F
:102F00005046394602F04AFF0146284602F046FF85
:102F100000210546E06002F0E9FF28B9A16B2846D0
:102F200002F03CFF0546E0602846002102F0D7FF92
:102F300028B9A16B284603F051FA0546E0602846FF
:102F4000314602F0C5FF002818BF354604D1284697
:102F5000494602F0C4FF38B92846494602F0CDFF81
:102F6000002818BF4D46E560C4F80880BDE8F0872A
:102F7000B0B588B00120012100F049F804200121FA
:102F800000F051F80320C1F60300079040F600005E
:102F9000C4F2010007A9FEF731FD4FF0804000F0B8
:102FA0007DFD6320CDF816002320CDF8120000250A
:102FB0000DF112014FF080408DF81A5000F0F1FD34
:102FC0000DF10204204600F0E0FD6020C0F2010097
:102FD000CDF802004FF080402146029500F063FDDD
:102FE0004FF08040214600F096FD4FF080400121D7
:102FF00000F05DFC08B0B0BD01464FF0804000F02D
:10300000CABD01464FF0804000F0C7BD704700299F
:1030100041F21C01C4F202010A680CBF22EA00005E
:10302000104308607047002941F21801C4F2020100
:103030000A680CBF22EA000010430860704710B510
:1030400041F20404C4F20204226802F00C02082ACD
:1030500041F20022C0F27A0212D12368D4F800C0F3
:10306000C3F3834E5FEACC330EF1020C02D5236822
:103070009B0303D540F60012C0F23D020CFB02F2A6
:103080000260236846F27471C3F30313C0F60001B3
:10309000CB5CDA4042602368C3F30223CB5C22FAA4
:1030A00003F383602368C3F3C223C95C46F27073E1
:1030B00022FA01F1C1602268C0F60003C2F3813236
:1030C0009A5CB1FBF2F1016110BD704740F246001D
:1030D000C2F20000008840F21471C2F20001488080
:1030E00040F29E2040F23812C2F20000C2F200020A
:1030F000008812688880C1F8062000F07FB870B59B
:1031000086B04FF480400121FFF78DFF042001219C
:10311000FFF789FF43F6000440F20020C4F20104E7
:10312000C1F60300A4F5405505AE0590284631468A
:10313000FEF764FC40F20040C4F603000590284608
:103140003146FEF75BFC4FF41650019000204FF41F
:103150004021ADF81000CDE9020101A9204600F0A0
:103160004DFE204640F22551012200F030FE4FF482
:10317000A060FFF77AFA40F22510C0F2011000902B
:103180006846FFF743FA2046012100F0F8FD06B03B
:1031900070BD0000F0B581B04FF60044C0F60004E9
:1031A00020464BF2B555FEF723FFA84201D100257A
:1031B00013E02046FEF704FF20464BF2B551FEF720
:1031C0000AFFA51C40F2FF1628460021FEF703FF68
:1031D000013E05F10205F7D1012540F214770026E2
:1031E000C2F200073019FEF703FFB8530236B6F5F6
:1031F000806FF7D1284601B0F0BD000070B54FF6E2
:103200000044C0F600042046FEF7DAFE40F21476D1
:103210000025C2F2000600BF715B2819FEF7DBFE35
:103220000235B5F5806FF7D170BD704782B041F2BD
:103230000000C4F202000168002241F001010160B7
:103240004168CFF6FF021140416001684FF6FF72FE
:10325000CFF6F66211400160016821F4802101601F
:10326000416821F4FE0141604FF41F01816000219B
:1032700001910091016841F480310160016801F41D
:1032800000310091019901310191009919B9019919
:10329000B1F5A06FF2D10168C1F3404100910099EE
:1032A000012934D142F20001C4F202010A6842F05D
:1032B00010020A600A6822F003020A600A6842F0FB
:1032C00002020A604168416041684160416841F41E
:1032D00080614160416821F47C114160416841F4A2
:1032E000E8114160016841F0807101600168890165
:1032F000FCD5416821F003014160416841F00201C1
:10330000416000BF416801F00C010829FAD14EF676
:103310000850CEF200004FF00061016002B070472B
:10332000B0B5048C24F00104048440F6FF34B0F8F6
:1033300018C0B0F820E0C4F20004A0424FF6FC74BC
:103340000DDCB0F1804F1DD040F20045C4F2000505
:10335000A84217D040F60005C4F200050FE040F681
:103360000045C4F20005A8420CD042F60045C4F264
:103370000105A84206D043F20045C4F20105A84267
:1033800018BF083C0EEA040529432CF0F30542EA75
:10339000031241F001012A4302830184B0BDB0B59C
:1033A000048C24F01004048440F6FF34B0F818C0F4
:1033B000B0F820E0C4F20004A0424FF64F740DDCD8
:1033C000B0F1804F1CD040F20045C4F20005A84285
:1033D00016D040F60005C4F200050FE040F60045A7
:1033E000C4F20005A8420BD043F20045C4F2010527
:1033F000A84205D042F60045C4F20105A84201D119
:10340000090180340EEA0405294340F6FF4505EA28
:103410000C0545EA033341F0100143EA022202831E
:103420000184B0BD2DE9F04782B042F60044C4F2F9
:1034300001042046012100F05DFA012836D1204622
:10344000012100F031FAFEF7EBFB40F28C20C2F2D2
:103450000000007840F20879C2F20009013899F8BA
:103460000010012816D8A9B140F20670C2F200007F
:10347000028892087C2A13D80288013202800088D0
:10348000B0F5FA7F0CD140F20470C2F200000122C4
:10349000027005E040F20670C2F2000000220280D5
:1034A00040F28D20C2F20000007810B102B0BDE8F9
:1034B000F08740F61830C2F200000288013293B261
:1034C0000A2B0280C0F0FA80002140F2201440F262
:1034D0002415018040F2A02740F29A26C2F200048F
:1034E00040F22211C2F2000540F29823C2F2000716
:1034F000C2F20006C2F20001C2F2000320462A46D0
:10350000CDE90067FEF76AFC40F29E21C2F200019D
:10351000308809880E1840F29C21B4F90000C2F2EC
:1035200000010E8002F074F90446B5F900000D4662
:1035300002F06EF902460B462046294601F0E8FDEE
:1035400041F2447242F2FB13C5F24142CCF209034C
:1035500001F0C6FF48F20003C4F26603002202F045
:10356000F9F901F0CFFE054640F22C10C2F200003E
:10357000056030B202F04CF900224FF07C5302F0AB
:10358000E9F944F20003C4F29F03002202F0E2F9D9
:1035900041F27B48C4F2AE7847F6E123C3F6847368
:1035A000424602F0D7F901F0ADFE064640F238106F
:1035B00040F23C11C2F20000C2F2000100680E604D
:1035C000294602F0EBFB40F23011C2F2000140F25A
:1035D0003417C2F2000708604CF6CC413C68C3F6D1
:1035E0004C6102F02FFE4CF6CD410546C3F64C71FE
:1035F000204602F027FE294602F0D0FB40F2281AAE
:10360000C2F2000A0546DAF8000031463D6002F0D9
:10361000C5FB40F29421C2F200010968064621F080
:10362000004002F08FFB0023C4F21403002201F0DB
:1036300057FF47F6E127C3F6947742463B4602F030
:1036400089F947F6E123C3F67473424601F08CFE14
:1036500001F058FE044602F075FB42463B4602F07C
:103660000DFC00281CBF4DF20A74C3F6A3444FF0B2
:103670007E50214602F0B2FE0146304602F0E2FDE5
:1036800006462046294602F0DDFD314602F086FB63
:103690000021CAF8000020F00040C4F2482102F0E6
:1036A00025FC99F8001048B941B140F20970002199
:1036B000C2F20000012289F80010027040F61A30B0
:1036C000C2F200000288013293B2322B02804FD343
:1036D000002101800120FEF771F802F099F848F20C
:1036E0000004C4F279040022234601F0F9FE49F6F1
:1036F0009A1549F69916C9F69915C3F6A9762A4678
:10370000334601F0EDFE01F0FDFD40F20C77C2F210
:10371000000738600220FEF751F802F079F8002225
:10372000234601F0DDFE2A46334601F0D9FE01F0C2
:10373000E9FD044640F210703D68C2F200000460EA
:103740002846214602F02AFB4FF07C5102F07AFD18
:1037500040F24411C2F2000108602846214602F0FE
:103760003DFE40F2942299F80010C2F2000210606F
:10377000002945D040F61430C2F20000018840F222
:10378000000901318AB240F290280A2AC2F20009E7
:10379000C2F20008018056D340F22812C2F20002A1
:1037A00000211268018048466FF06304C9F80420C4
:1037B000FFF767FBD9F80C1040F24010D8F8007002
:1037C00081F00046C2F200000660384602F006FEB4
:1037D00002F09CFC40F2007AC2F2000A0546AAF808
:1037E00000003046394602F0F9FD02F08FFC40F24D
:1037F0000276C2F20006642D30800CDD64210EE0FA
:1038000001200021FEF797FB0220002102B0BDE855
:10381000F047FEF790BBA5426FF0630102DA0D4658
:10382000AAF80010642802DD6424348002E0A0427B
:10383000B8BF348001202946FEF77DFBB6F90010A1
:103840000220FEF778FB40F61630C2F20000018835
:1038500001318AB2322A0180FFF428AE00210180B2
:1038600040F24410C2F20000006840F24805C2F283
:10387000000568602846FFF704FBE86840F284040E
:10388000C9F8000040F29420C2F200000068C2F2C1
:10389000000460602046FFF7F4FAE068C8F8000012
:1038A00004E6C94301827047C94301827047028818
:1038B000002918BF012122F0010211440180704744
:1038C000B0B5B0F808C0B0F818E0058C2CF00704CB
:1038D00021434FF6FC4404EA0E0425F0220542EA97
:1038E000031204F201142A43018104830284B0BD4F
:1038F000808C7047028A80890A4000EA010018BF64
:103900000122002818BF012010407047F0B581B097
:103910000D460E884988AA882B89082E044618D09F
:10392000042E0AD0B6BB2046FFF7FAFCE98834F82B
:10393000180F20F00C00208009E02046FFF72FFD33
:10394000E88834F8181F21F44061218001022046E4
:1039500091E0208C40F6FF3720F4807020842046D0
:1039600030F81CCFB4F820E06FF44056C4F20007E2
:10397000BC4206F514562CDCB4F1804F3BD040F22B
:103980000047C4F20007BC4235D040F60007C4F23D
:1039900000072EE0208C40F6FF3620F48050208473
:1039A000204630F81CCFB4F820E0C4F20006B44240
:1039B00046F6FF5635DCB4F1804F44D040F2004764
:1039C000C4F20007BC423ED040F60007C4F2000734
:1039D00037E040F60047C4F20007BC420BD043F288
:1039E0000047C4F20107BC4205D042F60047C4F2CA
:1039F0000107BC4204D14CF6FF76090206F53456A5
:103A000006EA0E0739432CF0F30747EA031341F4A3
:103A100080711A43A2832184E988A28B22F00C02D0
:103A200028E040F60047C4F20007BC420BD043F246
:103A30000047C4F20107BC4205D042F60047C4F279
:103A40000107BC4202D14CF6FF76090306EA0E07D5
:103A5000394340F6FF471B0307EA0C0743EA0222FB
:103A600041F480513A43A2832184E988A28B090260
:103A700022F44062A28302881143018001B0F0BDAC
:103A8000002101220160426001817047002A828981
:103A90000CBF22EA0101114381817047018921F0A5
:103AA000070101817047B0B5028C22F00102028447
:103AB000038C8288B0F818C00C8923F002032343DA
:103AC000A0F180444D88A4F59634B1F800E04FEAA7
:103AD000B424072C43EA050313D8012505FA04F49E
:103AE00014F0E50F0DD04C8923F00C0324F00404EE
:103AF0008D8823438C892B4322F44072CD89224345
:103B00002A432CF0730545EA0E0582800583C98897
:103B100081860384B0BDB0B5028C22F0100202840D
:103B2000038C8288B0F818E00C894D88B1F800C089
:103B30002C4343F2004523F02003C4F20105A842C0
:103B400043EA041305D042F60044C4F20104A04243
:103B500011D14C896FF0400523F0C00305EA04142D
:103B60008D88234343EA05138C89CD8922F4406272
:103B70002C4342EA84022EF4E64545EA0C25828075
:103B80000583C98801870384B0BD0021C1608160BD
:103B9000416001607047818670470187704781846A
:103BA000704740F6FF33B0F800C0C4F200039842FB
:103BB0000DDCB0F1804F1CD040F20043C4F2000392
:103BC000984216D040F60003C4F200030FE040F61E
:103BD0000043C4F2000398420BD043F20043C4F206
:103BE0000103984205D042F60043C4F20103984213
:103BF00004D14B882CF0700243EA020C41F20042DF
:103C000040F48063C4F20002934204D0CA882CF4CA
:103C1000407342EA030CA0F800C08A888285A0F1B4
:103C20008042A2F596320B884FEAB222072A03851A
:103C300007D8012303FA02F212F0E50F1CBF097A3C
:103C4000018601218182704710B584B04FF4006075
:103C50000121FFF7E8F942F60044C4F201042046CE
:103C6000FFF71CFF40F2E730CDF80A004720CDF8FF
:103C7000060000208DF80E000DF106012046FFF72A
:103C800090FF20460121FFF70CFE20460121012272
:103C9000FFF7FCFE4FF4A060FEF7E7FC40F21920AE
:103CA000C0F20110CDF802000DF10200FEF7AEFCEB
:103CB00020460121FFF7FBFD04B010BD10B543F60F
:103CC0000004C4F20104204640F2255100F066F8D9
:103CD000012818BF10BD204600F0EBF840F20A7131
:103CE00040F20B72C2F20001C2F20002012308701E
:103CF000204640F225511370BDE8104000F038B85E
:103D0000B0B544F20045C4F20005284640F2255102
:103D100000F044F8012818BFB0BD284600F0C9F8EB
:103D200040F2AE1CC2F2000CBCF8003045F629414E
:103D30005A1CC0F28F21A2FB0114642104FB112143
:103D400040F2AC14C2F200042488A14209D040F22F
:103D50004811C2F20001C854622B88BF0022ACF89F
:103D60000020284640F22551BDE8B040AFF3008066
:103D7000090A012202FA01F1C943018070478289D0
:103D8000002918BF012122F4005242EA4131818109
:103D900070470088084018BF01207047C1F34212E5
:103DA0001423022A08BF1023012A08BF0C2301F0A4
:103DB0001F02C35A090A4FF0010C00880CFA01F1E6
:103DC000084023FA02F118BF012008407047C1F3F0
:103DD000421301F01F0C1421022B08BF1021012BEC
:103DE0004FF0010308BF0C21002A03FA0CF24358DC
:103DF0000CBF23EA02021A434250704770B586B0E6
:103E00000446008A0D46C98820F4405008432082A9
:103E1000A0894EF6F3110840A9882A896B890843C6
:103E200010431843A081A08AA98920F44070084358
:103E300001AEA0823046FFF702F943F6000106F119
:103E40000800C4F201018C4208BF06F10C000068B2
:103E50001922B4F90C1050432A680123B1F1FF3F35
:103E6000C8BF022302FA03F1B0FBF1F048F21F5180
:103E7000C5F2EB11A0FB01235A096FF0630302FBAB
:103E80000300B4F90C300326B3F1FF3FC8BF04268A
:103E900000FA06F000F13200A0FB01014FF007002C
:103EA000C8BF0F2000EA511040EA0210208106B07E
:103EB00070BD80886FF35F2070476FF35F21818052
:103EC00070470000FEE7000086B0FEF7CBFDFDF76F
:103ED00043FFFDF783FEFEF718F8FDF786FCFDF7BC
:103EE000AFFFFDF744FBFEF7D7F9FFF708F9FFF73F
:103EF000ABFEFEF7C4FB0FF2C462002000210823D2
:103F0000FEF7A4FE0FF2CC62042010210823FEF776
:103F10009DFE0FF2D862002020210823FEF796FEB6
:103F200047F6E002C0F60002002030210823FEF729
:103F30008DFEFEF757FF00BF03200821FDF707FEA7
:103F40000028F9D0FDF713FEFFF724F960B3FFF75F
:103F5000BDF8FEF794FB0FF2A862002000210823B1
:103F6000FEF774FE0FF2AC62002010210823FEF76A
:103F70006DFE0FF2B862002020210823FEF766FED6
:103F800047F6E002C0F60002002030210823FEF7C9
:103F90005DFEFEF727FF00BF03200821FDF7D7FDD8
:103FA0000028F9D0FDF7E3FDFDF700FFFEF767FB02
:103FB000FDF7C9FA40F2047440F28C28C2F2000402
:103FC000C2F2000840F20870C2F20000007818B196
:103FD000FDF7E4FE02E000BFFDF7D8FE40F248071F
:103FE00040F2840600200821C2F20007C2F2000657
:103FF000FDF7ADFD70B340F20870C2F2000000782A
:1040000030B147F65A000021C0F600001BE000BFA7
:1040100040F20000C2F20000FEF726FF3846FEF72D
:1040200023FF3046FEF720FF40F23410C2F20000BA
:10403000006840F22811C2F20001086047F66600ED
:104040000121C0F6000040F20872C2F200021170B5
:10405000FDF7A2FB40F20970C2F200000078B8B18F
:1040600040F20870C2F20000007840F20971C2F21A
:1040700000010022002847F666000A70C0F6000022
:1040800047F65A01C0F6000108BF0846FDF784FB59
:1040900001200821FDF75BFD80B140F20870C2F2FB
:1040A0000000007820B14FF0804038600020306080
:1040B00047F6B900C0F60000FDF76EFB02200821AC
:1040C000FDF745FD80B140F20870C2F200000078B3
:1040D00020B14FF0404038600020306047F6A60025
:1040E000C0F60000FDF758FB03200821FDF72FFD67
:1040F00048B13846FEF7B8FE3046FEF7B5FE0FF27F
:104100004450FDF749FB03202021FDF720FD68B353
:1041100098F800000130C1B2022988BF002088F859
:1041200000003846FEF7A0FE3046FEF79DFE40F246
:104130000670C2F20000002101802170FDF703FA31
:1041400098F8001047F694000229C0F6000047F6E0
:104150008302C0F6000208BF1046012947F672012B
:10416000C0F6000108BF0846FDF716FB207868B1CD
:10417000002020703846FEF777FE3046FEF774FECA
:1041800047F6CB00C0F60000FDF706FB98F80000EC
:1041900001286BD1FEF70AF9012867D140F2BF2050
:1041A000C2F200000578012D60D840F2BF21C2F2B2
:1041B000000191F9020091F9034091F805B040F235
:1041C0000671C2F2000100220A8001F0BBFF3E46E8
:1041D0000027C4F2C817394601F0A2FE306040F251
:1041E00084062046C2F2000601F0ACFF394601F019
:1041F00097FEABF10101C9B20229306009D846F23D
:104200006470C0F6000050F82100017841F0080108
:10421000017040F24807012DC2F2000726D140F29A
:104220000070C2F20000007840F2DF2240F202711A
:10423000C2F20002C2F20001507040F22810097868
:10424000C2F200000068917040F20C71C2F20001ED
:10425000506040F210700968C2F20000006891607E
:1042600002211170D060FEF70FF900BFFDF736FA9A
:10427000002800F0BB80FDF7C3F998F80000022881
:1042800040F0B48040F21425C2F2000547F64E110A
:104290002846C0F60001FCF749F8002853D028460C
:1042A000ECA1FCF743F8002840F0A08040F2067033
:1042B000C2F20000002140F214220180C2F200028A
:1042C000107DB0F1310108BF517D61B992F828101D
:1042D000753905D192F82910703908BF92F82A1063
:1042E000002900F05881B0F1320108BF517D61B959
:1042F00092F82810753905D192F82910703908BF45
:1043000092F82A10002900F04F81333808BF507D01
:1043100000286BD140F21421C2F2000191F828006C
:10432000753805D191F82900703808BF91F82A0036
:1043300000285BD140F2A421C2F20001887840F04D
:104340000800887052E005F12800FBF7BBFF044627
:1043500005F13C00FBF7B6FF21B20FFA80FA6FF0CF
:10436000630011F1640FD8BF014664206429A8BF1F
:104370000146084601F04CFA0025C4F25905002216
:104380002B4601F0ADF8044640F24600C2F20000B0
:104390000088884601F053FA834689462046414604
:1043A0005A464B4601F0D6FA00F0ACFF38606FF089
:1043B00063001AF1640FD8BF82466420BAF1640F1B
:1043C000A8BF82465046002401F022FA00222B4664
:1043D00001F086F85A464B4601F0BCFA00F092FF15
:1043E000306040F20670C2F20000048047F65713B6
:1043F000002000210622C0F60003FEF787FB40F2F2
:104400000009C2F20009D9F8000001F09BFC8046C7
:104410003868BB460F4601F095FC05463068B24649
:104420000E4601F08FFC47F63619C0F600090C461F
:10443000049000200A2106224B46CDE90087CDE9F1
:1044400002560594FEF762FB40F22810C2F200000B
:10445000006801F077FC804640F24410C2F2000090
:1044600000680D4601F06EFC064640F29420C2F250
:10447000000000680F4601F065FC0C460490002027
:10448000122106224B46CDE90085CDE9026705944D
:10449000FEF73CFB40F20000C2F20000C06801F0F1
:1044A00051FC8046DBF80C000D4601F04BFC064643
:1044B000DAF80C000F4601F045FC0C4601A9CDF8D6
:1044C000008040F28C28E0C1049000201A210622CE
:1044D0004B46C2F200080594FEF718FB0020242189
:1044E0007F222423FEF708F940F20070C2F2000098
:1044F000B0F9007040F20270C2F20000B0F9006042
:1045000047F60613002028210622C0F60003CDE955
:104510000076FEF7FBFA40F20C70C2F20000006871
:1045200001F010FC044640F21070C2F20000006876
:104530000D4601F007FC47F61C130F4602900020C1
:1045400030210622C0F60003CDE900450397FEF7AF
:10455000DDFA98F8000041A702283FA108BF0F46E6
:10456000012840F24600C2F2000006883CA047F64F
:10457000F10308BF0746002038210622C0F60003D9
:10458000CDE90076FEF7C2FAFEF72CFC40F2047487
:10459000C2F2000416E540F2A421C2F2000108783C
:1045A00040F00800087021E740F2A421C2F20001A7
:1045B000487840F00800487018E700BF2020205BD2
:1045C000E6B19FE58D8FE7A791E68A805D202020E8
:1045D0000000000020E5B9B3E8A1A1E8BDA6E6B55A
:1045E0008BE8AF95E7A88BE5BA8F2000202020202C
:1045F000202056312E3020202020202000000000D6
:1046000020202020205BE68F90E7A4BA5D202020A8
:1046100020200000202020E5B7B2E9878DE7BDAE5D
:10462000E58F82E695B020202000000020E8AFB79B
:10463000E6B3A8E6848FE689A7E8A18CE6A0A1E509
:10464000878620004B65794D6F76653D486F6C64B9
:104650000D0A00006B657900425400004B4559007B
:10466000524600005FEA400C08BF91F0000F4FEA8D
:104670008C234FEAC12243EA51514FEA1C5018BF24
:1046800000F5F0404FEA300018BF41F000415FEA0A
:104690006C5C00F02980BCF1FF3F08BF40F0804017
:1046A0007047130C06BF12044FF0100C4FF0000CB3
:1046B000130E04BF12020CF1080C130F04BF1201F9
:1046C0000CF1040C930F04BF92000CF1020CD30FF9
:1046D00004BF52000CF1010C11464FF00002A0F192
:1046E0001F00A0EB0C00704711F0004F08BF70478F
:1046F00031F000413FF4D5AF0B0C06BF09044FF079
:10470000100C4FF0000C0B0E04BF09020CF1080C4A
:104710000B0F04BF09010CF1040C8B0F04BF8900BF
:104720000CF1020CCB0F04BF49000CF1010CCCF1D1
:10473000200322FA03F341EA030102FA0CF2A0EB90
:104740000C0000F10100704723F07F4720F07F4C00
:1047500080EA030000F00040ACEB070303F57C5354
:1047600003F1FF032DE9804909B44FEA144324EA19
:1047700003484FEA154B25EA0B4E0FF2042606EBD1
:1047800013273E7803FB0667C7F5000707FB06F60D
:104790004FEAD64606F102064FEA543707FB066C8D
:1047A000CCF1005C4FEA1C472CEA074C0CFB06F5E9
:1047B00007FB06F404EB15464FEA961649085FEA34
:1047C000320234BF00204FF000404FEAD13706FBE1
:1047D00007FC4FEA1C4C0CFB0BF7D21B03FB0CF73E
:1047E00061EB07010CFB0EF7B0EB074072EB1742D1
:1047F0000CFB08F734BFA2EB0742B2EB074261EBB8
:1048000017414FEA0C444FEA910706FB07FC4FEAB9
:104810001C4C0CFB0BF7B0EBC74072EB573203FBA1
:104820000CF734BFA2EBC742B2EBC74261EB573182
:104830000CFB0EF7B0EBC70072EB57720CFB08F7DE
:1048400034BFA2EBC702B2EBC70261EB57714FEA6C
:10485000816141EA92114FEA826242EA90124FEA84
:10486000806004EBCC04039F4FEAD13706FB07FCC2
:104870004FEA1C4C0CFB0BF7D21B03FB0CF761EB54
:1048800007010CFB0EF7B0EB074072EB17420CFB75
:1048900008F734BFA2EB0742B2EB074261EB1741C6
:1048A0004FEA8C5504EB9C244FEA910706FB07FC6A
:1048B0004FEA1C4C0CFB0BF7B0EBC74072EB5732C6
:1048C00003FB0CF734BFA2EBC742B2EBC74261EB6C
:1048D00057310CFB0EF7B0EBC70072EB57720CFBB5
:1048E00008F734BFA2EBC702B2EBC70261EB577106
:1048F0004FEA816141EA92114FEA826242EA9012E4
:104900004FEA806015EB4C2544F100044FEAD137A3
:1049100006FB07FC4FEA1C4C0CFB0BF7D21B03FBFE
:104920000CF761EB07010CFB0EF7B0EB074072EBE5
:1049300017420CFB08F734BFA2EB0742B2EB074269
:1049400061EB17414FEA813141EA92414FEA8232ED
:1049500042EA90424FEA80304FEA0C7615EB1C1584
:1049600044F1000448EA03434EEA0B484FF0000EBE
:10497000B2EB080C71EB030724BF624639464EEBDD
:104980000E0E4FF0000B0018524149414BEB0B0B40
:10499000B2EB080C71EB03077BF1000B24BF6246FE
:1049A00039464EEB0E0E4FF0000B001852414941B4
:1049B0004BEB0B0BB2EB080C71EB03077BF1000B1D
:1049C00024BF624639464EEB0E0E51EA020718BF6D
:1049D00046F0010616EB0E7655F1000254F1000187
:1049E00003D5BDE88901BDE80088BDE88901BDE8BF
:1049F0000048B619524141EB0101A3F10103704790
:104A000080807F7E7D7C7B7A79787776767574730B
:104A1000727171706F6E6E6D6C6C6B6A6A696868CA
:104A2000676666656464636362616160605F5F5E60
:104A30005E5D5D5C5C5B5B5A5A59595858575756D6
:104A4000565555555454535352525251515050503B
:104A50004F4F4F4E4E4D4D4D4C4C4C4B4B4B4A4A8D
:104A60004A494949484848474747474646464545D1
:104A7000454444444443434343424242424141410A
:104A80009C46002B30D477002BD04FEA37071CB55B
:104A900003B44FF010004FF01001BAF1000F06D030
:104AA000BCF1000FDCBF40F0080040F008014FF0FF
:104AB00000000FBCBDE810400BF1010BBBF1010F72
:104AC00008BF5FEA170722BF12F1010211F10101CD
:104AD0004FF0004143F1000300F0004043EA0000C2
:104AE0007047F9D35708D0E746EA06464FEA16461C
:104AF00013F1400F1FDD13F1200FDFBF16430A46ED
:104B0000002120335B42BED0C3F1200746EA0646AF
:104B10004FEA164602FA07F746EA070622FA03F2B8
:104B2000C3F1200701FA07F742EA070221FA03F16D
:104B30004FF00003A7E746EA020646EA06464FEAB8
:104B4000164646EA0106BCBF46EA0646360C4FF05A
:104B500000034FF000024FF0000194E72DE9804C74
:104B600070B49A46934691E8380007C831EA400C81
:104B700048BF34EA430C03D5FFF7E6FDFFF780FF9B
:104B8000F0BCBDE8008C2DE9804C70B49A46934689
:104B900091E8380007C810F0804F08BF13F0804F2D
:104BA00003D100F005F8FFF76BFFF0BCBDE8008C07
:104BB00020F07F4723F07F4C80EA030000F00040A4
:104BC00007EB0C03A3F57C53A3F1FE0392F0000F57
:104BD00000F0B38095F0000F00F077802DE90149D7
:104BE0004FEA114021EA00484FEA144624EA0647FA
:104BF00000FB06FC08FB06F607FB08F818EB064866
:104C00004CEB164C00FB07F718EB07484CEB174032
:104C10004FEA124B22EA0B4E4FEA154625EA0647A9
:104C20000BFB06FC0EFB06F607FB0EFE1EEB064E0C
:104C30004CEB164C0BFB07F71EEB074E4CEB174BE0
:104C400018EB0B0840F1000018EB0E0B58EB0008B6
:104C500040F100008F1A4FF000014FF000063CBFFA
:104C6000C943661B14BFB5EB040C00213CBFC9430C
:104C7000F61B4FEA174427EA04454FEA1C472CEA83
:104C8000074C04FB076205FB07F70CFB05F616EB68
:104C9000074642EB174204FB0CFC16EB0C4642EBBA
:104CA0001C421BEB060658EB020241414EEA8E0EF7
:104CB00046EA9E0601D5BDE80189B619524141EB8D
:104CC0000101A3F10103BDE801894FEA144524EA7B
:104CD00005464FEA114721EA074C05FB07F406FB9E
:104CE00007F70CFB06F111EB074144EB174405FBFA
:104CF0000CFC11EB0C4144EB1C444FEA124722EA36
:104D0000074C05FB07F206FB07F70CFB06F616EB54
:104D1000074642EB174205FB0CFC16EB0C4642EB38
:104D20001C456A1854F1000148BF7047B61952413A
:104D300041EB0101A3F10103704795F0000F37D05B
:104D40004FEA114221EA02464FEA144724EA074C8F
:104D500002FB07F106FB07F70CFB06F414EB074414
:104D600041EB174102FB0CFC14EB0C4441EB1C41E2
:104D70004FEA154725EA074C02FB07F506FB07F744
:104D80000CFB06F616EB074645EB174502FB0CFC41
:104D900016EB0C4645EB1C42121951F1000148BFBD
:104DA0007047B619524141EB0101A3F1010370476D
:104DB0004FEA144524EA05464FEA114721EA074C19
:104DC00005FB07F106FB07F70CFB06F212EB0742A7
:104DD00041EB174105FB0CFC12EB0C4251EB1C4163
:104DE0004FF0000648BF7047921841EB0101A3F154
:104DF00001037047490050EAC12018BF04204A0D42
:104E000018BF40F0010040F2FF72B2EB515F08BFE3
:104E100040F00200012808BF052070472DE9F0414D
:104E20004F1E00EBC7010446D1E9000115461E469E
:104E300037F006020DD02A46334600F08BFD7F1E68
:104E400004EBC703D3E9002300F08EFA37F0060223
:104E5000F1D1022F25D0042F13D0062F18BFBDE8A3
:104E6000F0812A46334600F075FDD4E90A2300F0AC
:104E70007BFA2A46334600F06DFDD4E9082300F0A2
:104E800073FA2A46334600F065FDD4E9062300F0A4
:104E90006BFA2A46334600F05DFDD4E9042300F0A6
:104EA00063FA2A46334600F055FDD4E9022300F0A8
:104EB0005BFA2A46334600F04DFDD4E90023BDE8F5
:104EC000F04100F051BA012201F033BB00F04CBABE
:104ED000024A0020110701F02CBB000001FDFFFF7A
:104EE00030380A2801D201207047002070470000A6
:104EF0002DE9F84F04460D4621F00040009173491A
:104F0000814211DC7249884201DC06D12CB1204675
:104F10002946BDE8F84FFFF7D6BF6E48002DCCBF3D
:104F20006D496E49BDE8F88F6D49814211DD6D49CB
:104F30008142D8BF4FF0FF366DDD20462946FFF78E
:104F400059FF042808BFFFF7C3FF20462946BDE8E4
:104F5000F88F6549654F25F00045814233DD64498E
:104F6000814219DD002632464FF080432046294613
:104F700000F0FAF980468A4601222046294601F0CF
:104F8000D8FA00223B4600F0EFFD4246534600F0BF
:104F9000A7FA04460D463EE001260022BA463B46EB
:104FA0002046294600F0E0F980460F46002253468D
:104FB0002046294600F0D8FD42463B4600F090FAD4
:104FC00004460D4627E04B4981421BDDDFF828A14E
:104FD0000226002253462046294600F0BBFC002250
:104FE0003B4600F0C1F980460F460022534620465A
:104FF000294600F0B9FD42463B4600F071FA0446EE
:105000000D4608E0032622462B4600203B4900F0CF
:1050100067FA04460D4622462B461046194600F014
:1050200099FC8B46824602460B4600F093FC0746ED
:105030000246334888460B4606217844FFF7EEFEC9
:1050400052465B4600F086FC82462E488B463A4626
:10505000434605217844FFF7E1FE3A46434600F017
:1050600079FC02460B46002E504659460CDA00F0F9
:105070007BF922462B4600F06DFC01B022462B4600
:10508000BDE8F04F00F064BD00F06EF922462B46FB
:1050900000F060FC1C4A7A4402EBC603D3E900230B
:1050A00000F062FD22462B4600F05EFD174A7A446E
:1050B00002EBC603D3E9002300F04AFD009A002A60
:1050C000B8BF81F00041BDE8F88F00000000104437
:1050D0000000F07F182D4454FB21F93FFB21F9BF5C
:1050E0000000DC3F0000203E0000F33F0000F03FE6
:1050F0000000E63F008003400000F83F0000F0BFE2
:1051000032160000F01500008E1500005615000044
:105110002DE9F04D9446CCF1000423F000464CEA12
:105120000404594F46EAD4749A46884621F0004256
:10513000BC4206D8454240EA050442EAD474BC4267
:1051400004D9BDE8F04D6246FFF7C0BEAAF1405554
:10515000A5F17F6555EA0C040BD0022404EAAA7479
:105160004A4DDFF82CE144EAD87452EA000B04D02F
:105170000CE0BDE8F04DFFF7BBBE002C14BF012CC6
:10518000BDE8F08D022C30D0032C32D056EA0C0B47
:105190000AD0BE4220D1BA4209D126F0804622F080
:1051A00080423346114617E000291ADB25E0DFF87C
:1051B000E4B0FB44002C04BFDBE90001BDE8F08D46
:1051C000012C02BFDBE9000181F00041BDE8F08D58
:1051D000022C0AD0032C0CD0BA4212D1B8F1000F25
:1051E0000BDA2A482C49BDE8F08D28462B49BDE84A
:1051F000F08D28467146BDE8F08D24482849BDE869
:10520000F08D921B12153C2AC4BF204F244E10DC97
:10521000BAF1000FBEBF12F13C0F00273E4608DB7B
:10522000624600F05DF921F00041FFF761FE07469C
:105230000E4694B1012C08BF86F000460DD0194AE5
:10524000194B022C3846314615D000F08DFC2A4609
:10525000BDE8F04D114B00F087BC002213463846E4
:10526000314600F099FA04BF0220FBF7ACF838464B
:105270003146BDE8F08D00F077FC2A46BDE8F04DE0
:10528000064B00F065BC00000000F07F182D445470
:10529000FB2109C0EA140000FB21F9BFFB210940F2
:1052A000FB21F93F075C143326A6A13C10B5002969
:1052B0000AD00878002807D005487844FBF736F86C
:1052C000002801D0002010BD0248784410BD000025
:1052D000D2260000CA26000010B500290AD008789E
:1052E000002807D005487844FBF720F8002801D0B3
:1052F000002010BD0248784410BD0000B627000011
:10530000AE27000021F0004201F00043A2F16052FC
:10531000B2F5801F28BFD2F17F6C0BD95FEA001C69
:1053200043EAC20242EB507018BF704728BF20F01A
:1053300001007047B2F5801FBCBF184670474FEAA6
:10534000410C1CF5001F02D2084601F042B870B5AE
:1053500000F0AAFB00000089FFF7F6BF4FF0004005
:10536000A0F580007047000010B591EA030F48BF18
:1053700083F0004300F10084841A71EB030C05D222
:10538000121943EB0C03001B61EB0C014FEA1154A3
:10539000A4EB135CDFF81CE11EEA430F18BF9EEA82
:1053A000445F00F0748021EA045123EA0E0343F4C1
:1053B0008013DCF1200E32D322FA0CFE10EB0E002B
:1053C00023FA0CFE41EB0E01CCF1200E03FA0EFE87
:1053D00010EB0E00CCF1200E51F10001B1F5801F51
:1053E00032D201EB045112FA0EF2BDE8104058BF60
:1053F0007047401C38BF5FEA420218BF7047002860
:1054000014BF20F0010041F100014FEA410313F500
:10541000001F38BF7047A1F1C04100F093BB012AC3
:1054200043EB0302ACF1200CDCF11F0E32BF4FF056
:10543000000E23FA0CF310EB030041EB0451B4EB24
:10544000115FD0D0A1EB045101F58011490801EBA7
:1054500004515FEA30000ED350F1000038BF12FA59
:105460000EFE08D1BDE81040C9E7401C38BF5FEA16
:105470004202CAD1C3E7BDE810404FEA410313F529
:10548000001F38BF7047A1F1C04100F05BBB9EEA2E
:10549000445F08D011EA5E0FBDE8104004BF01F080
:1054A000004100207047BDE8104070B500F0FCFAE4
:1054B00064FBBE3E0000E0FF02494FF0000001F037
:1054C00006B800BF0000F87F491058BFC1F1404145
:1054D0005B1058BFC3F140438B42EFF3008070472D
:1054E0002DE9C04130B4DFF8A8C23CEA111418BF5E
:1054F0003CEA131400F0F0801CEA111481EA030561
:1055000044EAD57418BF1CEA131500F0CB80A4EB55
:10551000050404F17F7404F500344FF0004545EABA
:10552000C12145EAC32341EA505143EA52534FEAAD
:10553000C0204FEAC222994208BF904200F0A080EA
:105540004FEA13650FF24816765D4FEA134506FBE6
:1055500005F7C7F1807706FB07F74FEAD737A7FBB8
:1055600003687642A7FB06CEC8F5803838BFA8F19D
:10557000010807FB08E6A6FB028C4FF0000EE6FBD5
:1055800003CED8F100086FEA0C0C5CF1000C6FEA56
:105590000E0E4EF1004EA6FB0C584FF00007E6FB36
:1055A0000E87A1FB08C6A0FB07CE16EB0E064FF038
:1055B000000545F10005E1FB076515F1E04E7EBFF2
:1055C000A4F580345FEA46066D4116F1800745F187
:1055D00000054FEA172747EA05674FEA15254FEA06
:1055E0000666A6F1DE46B6F1805F20D9384605EBA7
:1055F000C47124F0010C01EB0C11BCF1FE6F02D858
:10560000F0BCBDE8008124425CBF01F5801E9EEA2B
:10561000C47F02D4F0BCBDE80081244200F139808F
:10562000A1F1C041F0BCBDE8004100F08BBA4FEAE7
:10563000D02040EA41504FEAD1214FEAD22242EA3B
:1056400043524FEAD323A7FB028607FB036605FB01
:1056500002661EEA0E0F58BFA6EB0056B6EB0056C8
:105660004FEA520E4EEAC37E18EB0E0E56EB530E67
:10567000BCD518EB02085E417F1C55F10005B5E76B
:105680004FF480154FF000074FF000064FF0000870
:10569000ACE701F1C04101F000414FF00000F0BC67
:1056A000BDE800810CEA131511EA0C1F00D00CE0D4
:1056B00013EA0C1F00F025804FF0000081EA03017F
:1056C00001F00041F0BCBDE80081F0BCBDE8004144
:1056D00081EA030100F036BAF0BCBDE8004170B5C4
:1056E00000F0E2F9097EFC3E00F007B84FF0000040
:1056F00081EA030101F00041704781EA030100F0F3
:1057000021BAF0BCBDE8004122494FF000007047CB
:10571000FFFDFBF9F7F5F4F2F0EEEDEBE9E8E6E476
:10572000E3E1E0DEDDDBDAD8D7D5D4D3D1D0CFCDFD
:10573000CCCBCAC8C7C6C5C4C2C1C0BFBEBDBCBB36
:10574000BAB9B8B7B6B5B4B3B2B1B0AFAEADACAB31
:10575000AAA9A8A8A7A6A5A4A3A3A2A1A09F9F9E0B
:105760009D9C9C9B9A9999989797969595949393BD
:10577000929191908F8F8E8E8D8C8C8B8B8A898954
:1057800088888787868585848483838282818180D7
:105790000000FF070000F87F51EA030C17D41CF546
:1057A000801F58BFBCF5801F00F10680994218BFCA
:1057B000704708BF9042704707D711F5801F58BF48
:1057C00013F5801F19D499427047894270471CF520
:1057D000801F08D5BCF5801FF7D58B4218BF7047D6
:1057E00008BF824270474FF4001C1CEB410F38BFCA
:1057F0001CEB430F01D28B42704770B500F054F997
:10580000922449004FF000514FF08053FFF75CBEE7
:1058100010F0004248BF4042B0FA80F310FA03F1A2
:105820000AD0C3F11D0303F5806302EB03524FEA74
:10583000415002EBD12170474FF000007047B0FAA1
:1058400080F310FA03F10AD0C3F11D0303F580635E
:105850004FEA03524FEA415002EBD12170474FF01B
:105860000000704751EA030C17D41CF5801F58BF85
:10587000BCF5801F00F10680994218BF704708BF31
:105880009042704707D711F5801F58BF13F5801F4E
:1058900019D499427047894270471CF5801F08D57A
:1058A000BCF5801FF7D58B4218BF704708BF8242F6
:1058B00070474FF4001C1CEB410F38BF1CEB430F2B
:1058C00001D28B42704770B500F0EEF89224490087
:1058D0004FF080514FF00053FFF7F6BD51EA030C33
:1058E00017D41CF5801F58BFBCF5801F00F106803F
:1058F000994218BF704708BF9042704707D711F50B
:10590000801F58BF13F5801F19D4994270478942F0
:1059100070471CF5801F08D5BCF5801FF7D58B425A
:1059200018BF704708BF824270474FF4001C1CEB41
:10593000410F38BF1CEB430F01D28B42704770B54B
:1059400000F0B2F8922449004FF000514FF080531C
:10595000FFF7BABD70B5DFF848C11CEA111E1EBFC3
:105960001CEA13159EEA0C0F95EA0C0F00F06F80ED
:1059700081EA03044EEAD47EAE4421EA4C1123EAC4
:105980004C1341F4801143F48013AEF17F7EA1FBF0
:10599000024CA0FB0365361955EB0C05A1FB034C2B
:1059A0004CF10003A0FB021C16EB0C06654153F101
:1059B0000003094218BF46F0010613F4007F0BD123
:1059C0004FEA03314FEA053041EA155140EA1650DB
:1059D00034036FF003020AE04FEAC3214FEAC52007
:1059E00041EA555140EA5650F4026FF0020202EBD0
:1059F0002E4201EB025585EACE710AD05FEA440CD3
:105A000018BF24F0004450F1000041F1000120EAE9
:105A1000D47040F2FE7C624500D270BDA84214BF33
:105A20004FF080444FF04044002E08BF0024BEF1E8
:105A3000806FA8BFA1F1C041BDE8704080F28280B4
:105A400001F1C04101F000414FF0000070470CEA45
:105A500013159EEA0C0F18BF95EA0C0F06D081EAC9
:105A6000030E4FF000000EF0004170BD00F01CF876
:105A70008900013E00F007B800F009B84FEA430C76
:105A80005FEA5C5C08D081EA030100F05BB84FEA92
:105A9000410C5FEA5C5CF6D102494FF000007047B0
:105AA0000000FF070000F87F0EF1020E2EF0030E3B
:105AB0005EF8046B364205D4012A43EB030515F565
:105AC000001F12D8012841EB010C1CF5001F0CD857
:105AD0000ED14FEAD17C0CEB4C0C0CF1020C15F5FD
