:020000040800F2
:10000000D80A002061020008311D0008CD1A00083E
:100010002D1D0008DD170008353200080000000023
:10002000000000000000000000000000712D00082A
:10003000E118000800000000092D0008A12E0008AA
:100040007B0200087B0200087B0200087B0200089C
:100050007B0200087B0200087B0200087B0200088C
:100060007B0200087B0200087B0200087B0200087C
:100070007B0200087B0200087B0200087B0200086C
:100080007B0200087B0200087B0200087B0200085C
:100090007B0200087B0200087B0200087B0200084C
:1000A0007B0200080D2F00087B0200087B0200087D
:1000B0007B0200087B0200087B0200087B0200082C
:1000C0007B0200087B0200087B0200087B0200081C
:1000D0007B0200087B0200087B0200087B0200080C
:1000E0007B0200087B0200087B02000800F002F897
:1000F00000F0A6F814A696E8000CB244B344DA4522
:1001000001D100F09DF8BAE80F000FA696E8300084
:10011000A5EB040504EB0607AAEB0704A7F101070A
:100120004FEA15154FEA3414A4F10104AC4201D38F
:1001300000F086F813F0010F18BFFB1A43F001031B
:1001400000F001F8DBE71847D8470000F847000047
:10015000103A24BF78C878C1FAD8520724BF30C8F3
:1001600030C144BF04680C60704700007047000055
:100170000023002400250026103A28BF78C1FBD8B0
:10018000520728BF30C148BF0B6070476E2900F08E
:100190007B81702900F0BD82662903F0788665298D
:1001A00003F07586672903F07286612903F0718672
:1001B00003681B0A28BF41F08001692900F02881EB
:1001C000642900F02581752900F022816F2900F053
:1001D0004B82782900F08982E92900F0E581E42941
:1001E00000F0E281F52900F0DF81EF2900F048827C
:1001F000F82900F088820368DB0928BF41F08001FC
:10020000632900F08987732900F08E87E32900F0C5
:100210009987F32900F09E87002070471FB500F0F2
:10022000F3FF04000020002103F0A4FD401C6060E7
:100230000020002103F088FDE0601FBD10B510BD57
:1002400000F0B4FF1146FFF7E9FF02F0F5FF01F0FF
:1002500091F803B4FFF7F2FF03BC01F095F800003A
:100260000948804709480047FEE7FEE7FEE7FEE74A
:10027000FEE7FEE7FEE7FEE7FEE7FEE70448054986
:10028000054A064B70470000A52E0008ED00000847
:10029000D8040020D80A0020D8060020D806002064
:1002A0001CB50C46064B7B4469460090204600F086
:1002B00004F904460020694600F012F920461CBDEE
:1002C000370200004FF0013C50F8042B51F8043B7A
:1002D0009A4221D1A2EB0C03934313EACC1317D11A
:1002E00050F8042B51F8043B9A4215D1A2EB0C03B1
:1002F000934313EACC130BD150F8042B51F8043B71
:100300009A4209D1A2EB0C03934313EACC13DBD03E
:100310004FF00000704700BFD01A01BAB1FA81F166
:1003200001F0180122FA01F0CB40DBB2C0B2C01AD2
:10033000C1F120012CFA01F3D11A914311EAC31142
:10034000E6D1704770477047704770B504468569BD
:100350000068C10601D5302600E02026C00707D07E
:1003600070BDD4E9012130469047206A401C2062CC
:100370006D1EF6D570BD70B5044685690078C0075E
:1003800007D170BDD4E9012120209047206A401C8C
:1003900020626D1EF6D570BD09684A0501D540B2D0
:1003A0007047C905FCD500B2704709684A0501D5F8
:1003B000C0B27047C905FCD580B2704770B50C4615
:1003C0000546012A05D02878800600D5EA69002371
:1003D00002E0012305E05B1C934202D2E05C0028AE
:1003E000F9D1A869E618C01AA861286A18442862D9
:1003F0002846FFF7AAFF04E0D5E9012114F8010B14
:100400009047B442F8D32846FFF7B5FF70BD00000F
:100410002DE9F0410646002410687529314616A5DD
:1004200010D0FFF7B9FF002802DA404213A507E019
:1004300031688A0701D512A502E0490704D511A544
:10044000012401E0FFF7B1FF00210A2206F1240791
:1004500009E0B0FBF2FCB0FBF2F302FB1C00303011
:1004600078541846491C0028F3D123462A463046C2
:10047000BDE8F04100F061BA000000002D0000006E
:100480002B0000002000000011680268006A53057C
:1004900001D508700AE0D30501D5088006E01306EF
:1004A00003D5C217C1E9000200E0086001207047CF
:1004B00001694A1C02610878704700B58FB0CDE928
:1004C00001310021059105497944CDE90310114618
:1004D000684600F029F90FB000BD0000E5FFFFFFFE
:1004E0000A6802F8010B0A60704700002DE9FF5FFF
:1004F00015468A460446DFF8AC80F8440027D8E960
:1005000000103E46CDE9001010E03AF816106A4699
:1005100002A800F023FE411C07D02178890603D5EC
:10052000E269391891420DD80744761C207880067C
:1005300002D5E069B84205DDAE42E6DB3AF81600C6
:100540000028E2D1A069C01BA0612046FFF7FDFE94
:10055000D8E90010CDE90010002017E03AF8181093
:100560006A4602A800F0FAFDB0F1FF3F81460BD0C9
:1005700000250DF1080B05E0D4E901211BF8050069
:1005800090476D1C4D45F7D308F10100B0428046FD
:10059000E4DB206A384420622046FFF7ECFEBDE829
:1005A000FF9F00009A3900002DE9F0418046D21DDE
:1005B00022F007020025D2E90002F52915A614D081
:1005C000011E72F1000106DA0023D0EB030063EB99
:1005D000020211A608E0D8F800108B0701D50FA67B
:1005E00002E0490701D50EA601251146002408F1B5
:1005F000240704E000F05CF930323A55641C50EAFC
:100600000102F7D12B46324621464046BDE8F04173
:1006100000F093B9000000002D0000002B00000046
:100620002000000030B4002100F1240408E002F0B2
:100630000705D208303542EA4372DB086554491C8D
:1006400052EA0305F3D10468002310A2250708D558
:1006500004F020040C4304D0C46901230CA2641EDE
:10066000C46130BC00F069B910B504462146106879
:10067000FFF79BFE02462046BDE810400023D1E76D
:10068000D21D22F00701D1E90023CBE700000000D2
:1006900030000000F0B40D460188090502D5214C58
:1006A0007C4402E01F4C7C440E34002100F12406FF
:1006B00008E002F00F071209E75D42EA03721B0926
:1006C0007754491C52EA0307F3D10278002312073A
:1006D00004D5702D06D009B1022311342246F0BC96
:1006E00000F02BB901231034F8E770B504460D462D
:1006F00021461068FFF759FE024629462046BDE80C
:1007000070400023C6E7D21D22F00703D3E900237F
:10071000C0E70368126843F0200303600823C36145
:100720000023B7E7FC3700002DE9F05F8946044657
:100730004FF0000ADFF874B1FB44C0F820A0204657
:10074000E1688847002874D0252806D0D4E9012123
:100750009047206A401C2062F1E700265F46204651
:10076000E16888472028054607DB312D05D2781936
:1007700010F8200C08B10643F1E7B00701D526F0C8
:100780000406C4F81CA00027C4F818A02A2D09D01C
:10079000284603F0D1FA38B304EB8708303DC8F897
:1007A000185019E059F8041B204604EB87029161A8
:1007B000E1688847012F054618D1E069002820DA52
:1007C00026F020061DE0D8F8180000EB800005EBAD
:1007D00040003038C8F818002046E16888470546D0
:1007E00003F0AAFA0028EED1012F0AD02E2D08D14D
:1007F0002046E16888477F1C0546022F46F0200608
:10080000C4DBA069002803DA404246F00106A0617B
:10081000F00701D026F010066C2D0BD0682D09D002
:100820004C2D39D06A2D35D0742D35D07A2D33D05A
:1008300016E038E0E1682F4620468847B842054672
:1008400009D16C2F26D04FF48060E1680643204622
:100850008847054604E06C2F1AD04FF48070064399
:100860000DB3A5F14100192802D8203546F40066E1
:100870004A462946204626604E46FFF787FC80B14F
:1008800001280BD0F61D26F0070000F1080956E7F5
:100890004020E4E78020D8E70020D6E706F10409ED
:1008A0004DE7284652E7206ABDE8F09F8C370000EC
:1008B00030B5B0F10A0271F100034FEA900E4EEA32
:1008C000817EB0EB0E0061EB91014FEA101E4EEA03
:1008D000017E10EB0E0041EB11114FEA102E4EEA93
:1008E000016E10EB0E0041EB11214FEA104E4EEA63
:1008F000014E10EB0E0041EB1141401841F1000197
:100900004FEAD00040EA41704FEAD1014FEA81043A
:1009100044EA907410EB800544EB01046D1944EB3C
:100920000404521BA3414FF0000348BF0A3200D514
:1009300030BD401C41F1000130BD2DE9F0470D46AE
:1009400099469246044600F124080168880604D5B9
:10095000E06921F01001216000E00120A84201DDE2
:10096000471B00E00027A1697A1902EB0900081A69
:10097000A0612078C00602D42046FFF7E6FC0026DE
:1009800008E0D4E901211AF806009047206A401CCB
:10099000761C20624E45F4DB2078C0060AD520463E
:1009A000FFF7D3FC06E0D4E9012130209047206A0C
:1009B000401C2062381EA7F10107F4DC07E0D4E9EF
:1009C000012118F805009047206A401C2062281E6B
:1009D000A5F10105F3DC2046FFF7CDFC20780006E9
:1009E00002D50220BDE8F0870120FBE72DE9FF4F8B
:1009F0000C461E464FF0FF378BB0D2E90001DDF800
:100A000060800A908A46C1F30A5505B93D46002127
:100A100008464FF00000BAF1000F00F4400005DA7C
:100A200000EB80004FF4400101EA50004FEA90597A
:100A3000B9F1010F00DDB9460A9850EA4A000ED01C
:100A400044F61050A5F2FF3545432F14B8F1000FBE
:100A50001ED07542291E1EDDC9F100021CE0B8F14E
:100A6000010F4FF0000001D0302103E0F24305E018
:100A70002154401CB042FBDB3046002200212154AF
:100A80000B99C1F80880C1E900200FB0BDE8F08FD4
:100A9000BD1B6D1CDEE74A4600DA694206A800F07D
:100AA000F7FB06AB93E8070003AB83E8070050466B
:100AB0000A9902F065FD8DE80700A0F500501F3887
:100AC00000900398002D0ADD42F21F014A460844B7
:100AD000002303A90390684602F0CEFF09E0A0F5C9
:100AE00000504A461F38002303A90390684602F0CD
:100AF000D8FF8DE807000004000C03D04FF0FF3052
:100B0000410800E01046B8F1000F03D00022009227
:100B100015461EE0751E05D4FFF7CAFE3032625539
:100B20006D1EF9D5B3460122084302D000227F1C76
:100B300004E02078302801D100227F1E002A099786
:100B400084D01DE0112D07DAFFF7B2FE3032625576
:100B50006D1C50EA0102F5D1084302D00098C8B1DB
:100B60000EE00021681E05E0235C625C63542254A1
:100B7000401E491C8142F7DBAB46A81B401E099072
:100B8000002004F80B000B98099AC0F80880C0E90F
:100B9000002B7AE711264FF0000857E72DE9F04FB8
:100BA00088460446D21D22F0070191B0D1E9000128
:100BB000CDE90A0103F0ACF802460B98C00F01D052
:100BC0002D2007E02068810701D52B2002E020219D
:100BD00001EAC000032A099001D0072A05DB034679
:100BE0004146204600F014FB0BE12078800601D539
:100BF000E06900E00620B8F1650F814606D0B8F143
:100C0000660F18D0B8F1670F70D131E00020B9F14C
:100C1000110F009001DB112301E009F101030AAA81
:100C200001A90CA8FFF7E2FEDDE90C70002609F12E
:100C30000105834647E001204B4600904FF00047F6
:100C40000AAA01A90CA8FFF7D1FEDDE90DB00C99A5
:100C50005D46002610B909F101000D18B9EB050039
:100C600003D4C0F1FF3609F10105A5EB09002BE023
:100C7000B9F1010F01DA4FF001090020B9F1110FAC
:100C80000090484601DD112300E003460AAA01A9AD
:100C90000CA8FFF7ABFEDDE90C704D46002683463D
:100CA000207800070AD4AB4500DA5D4601A8012D83
:100CB00004DD411911F8011C302907D04F4502DA33
:100CC00017F1040F04DA012082460FE06D1EEEE7F3
:100CD000002F02DCED1B3E4403E0781CA84200DD3F
:100CE0007D1CB81B00F1010A4FF000472078000777
:100CF00003D4AA4501DB4FF0FF3A0021B7F1004FC2
:100D00000DF143088DF8431024D002202B23002F2F
:100D100001DA7F422D230A21021EA0F1010000DC2E
:100D20005FB197FBF1FC97FBF1F201FB1C7C1746CE
:100D30000CF1300C08F801CDEEE7A8F101000370CA
:100D40002188090501D5452100E06521A0F10108B0
:100D500000F8011C09980FA9A1EB0807FF1D00B1BD
:100D60000120411901EBEA70A1693844081A401EBC
:100D7000A0612078C00602D42046FFF7E6FA099861
:100D800028B1D4E901219047206A401C20622078D4
:100D9000C00622D52046FFF7D8FA1EE0002E04DB5D
:100DA000B34502DD01A8805D00E03020D4E90121D7
:100DB0009047206A401C2062761CAAF101005FEA7D
:100DC000000A0AD100F020FAC0680168405CD4E94A
:100DD00001219047206A401C2062281EA5F10105D0
:100DE000DCDC07E0D4E9012118F8010B9047206A08
:100DF000401C2062381EA7F10107F3DC2046FFF7F4
:100E0000BAFA032011B041E62DE9F04F04460D4631
:100E1000D21D22F0070089B0D0E900974846394634
:100E200002F076FF0246F80F01D02D2307E020687C
:100E3000810701D52B2302E0202101EAC0038DF8B0
:100E400020300BB1012000E00020032A824601D0AF
:100E5000072A04DB2946204600F0DAF93FE1207832
:100E6000800601D40D2500E0E569C7F30A560D2D73
:100E700049DA00214FEA175B08464FF00000002FC7
:100E800000F4400007DA00EB80004FF4400100EB73
:100E9000D07001EA60008115012901DD4FF0FF31BA
:100EA00000224FEA850CBCF1180F06D31346ACF1B3
:100EB00018004FF08052C24003E04FF4801323FA31
:100EC0000CF30CF10C0CBCF1200F04D3ACF1200C92
:100ED00009FA0CF001E007FA0CF000294FF0004885
:100EE00001DD18B90FE00ED140450CD319EB020912
:100EF0005F4121B9404502D19F4329EA0209BBEB7A
:100F0000175F00D0761C2088000502D57B48784406
:100F100002E07A487844193808AA302302F80A30E7
:100F2000037C0AF10101002E0AF1020A53546A46B9
:100F300002DC4FF0300101E04FF031014FF00108C9
:100F40008DF8001002D0A6F2FF3603E059EA4701FF
:100F500000D06B4E002D02DC2178090704D54FF03C
:100F600002082E218DF80110C44600210BE0C7F3C2
:100F700003433F01C35C491C6D1E02F8083005297C
:100F800008F1010801DA002DF1DC00210CE000EB92
:100F90001973491C1B786D1E082902F808304FEAA6
:100FA000091908F1010801DA002DF0DC21688B062F
:100FB00002D516E0A8F10108E04505DD02EB0803C3
:100FC00013F8013C302BF5D0B8F1000F09DD02EB2E
:100FD000080313F8013C2E2B03D1090701D4A8F113
:100FE0000108002D05DD3E2102F808106D1E08F1F4
:100FF0000108407C002E02F8080008F1010804DA1C
:101000002D20764202F8080002E02B2002F80800AA
:101010000A214FF47A70864208F101080BDB96FB37
:10102000F0F3303302F8083096FBF0F308F10108D2
:1010300000FB136601E0642E0CDB642096FBF0F3EA
:10104000303302F8083096FBF0F308F1010800FB9A
:10105000136601E00A2E06DB96FBF1F0303002F851
:10106000080008F1010896FBF1F001FB1060303038
:1010700002F80800A16908F1010808EB050202EB7B
:101080000A00081AA0612078C00602D42046FFF7A3
:101090005CF9216A08AE01EB0A00206204E0D4E9A1
:1010A000012116F8010B9047BAF1010AF7D2207816
:1010B000C00602D52046FFF748F96E4609E016F84B
:1010C000010B3E280FD0D4E901219047206A401C33
:1010D0002062B8F10108F2D22046FFF74CF909B0BE
:1010E0000320BDE8F08F206A2844206203E0D4E9A1
:1010F0000121302090476D1EEBD3F8E7DA2F000076
:1011000002FCFFFF10B5436913B1AFF3008001E0AB
:10111000FFF754F9012010BD127800F124010A7084
:1011200000224A700122EDE711684FF0FF32E9E733
:1011300010B5436913B1AFF3008001E0FFF7D6F9B2
:10114000012010BD128800F1240182840022C28493
:101150000122EDE711684FF0FF32E9E72DE9F04198
:1011600016460C46054600F047F8036893F801015F
:10117000012807D0FF2C12D8185D80B101202C70F7
:10118000BDE8F081D3F807013246214603F2071388
:10119000C7182846BC46BDE8F041002360474FF021
:1011A000FF30EDE700487047100000207546FFF75C
:1011B000F9FFAE4605006946534620F00700854614
:1011C00018B020B5FFF75AF8BDE820404FF00006F0
:1011D0004FF000074FF000084FF0000BAC46ACE8B2
:1011E000C009ACE8C009ACE8C009ACE8C00921F00E
:1011F00007018D467047000010B500F005F8001D8E
:1012000010BD00BF712B0000004870473000002067
:101210002DE9F0411F46044603260168072A01F420
:10122000006004DB08B116A505E016A503E008B1CF
:1012300015A500E015A521F010002060A069C01ED2
:10124000A0610FB1401EA0612046FFF77EF84FB1AC
:10125000D4E9012138469047206A401C2062C01C16
:10126000206206E0206AFAE7D4E9012115F8010BB3
:101270009047761EF8D22046FFF77DF8BDE8F08152
:101280004E414E006E616E00494E4600696E66002A
:101290002DE9F047814616468AB0354878440DC896
:1012A0008DE80D0032487844801C03AC0DC884E8FA
:1012B0000D0041F69B300844372190FBF1F290FB82
:1012C000F1F5A5F1800501FB12041B3C02D5644237
:1012D000012000E00020DFF898A080460027FA44B3
:1012E000AAF1BE0A0EE0E0070AD03246684607EBD4
:1012F000470101230AEB810102F0D3FB8DE80700CF
:1013000064107F1C002CEED1194F7F44AE3F19E0D2
:10131000E80715D007EB04100DF1180A90E80E004D
:101320008AE80E00C068F04201D198190890324650
:10133000012306A903A802F0B4FB03AB83E807006E
:101340006D10641C002DE3D14FF001033246694655
:10135000B8F1000F03A802D002F08EFB01E002F00A
:10136000A0FBC9E90001C9F808200AB0BDE8F08770
:10137000DC2C000010B50446AFF300802046BDE829
:101380001040FEF766BF000001491820ABBEFEE723
:10139000260002007047000082B001908DF8031013
:1013A0009DF8030030B1FFE70199886840F0010023
:1013B000886005E00199886820F001008860FFE7F7
:1013C00002B0704782B0019000208DF803000198B0
:1013D00080684007002804D5FFE701208DF803004E
:1013E00003E000208DF80300FFE79DF8030002B042
:1013F0007047000081B000900098C06C80B201B0CE
:101400007047000082B001908DF8031000208DF825
:101410000200019800689DF80310084204D0FFE71D
:1014200001208DF8020003E000208DF80200FFE7A4
:101430009DF8020002B0704782B0019000208DF844
:101440000300019880680007002804D5FFE7012009
:101450008DF8030003E000208DF80300FFE79DF8FE
:10146000030002B07047000084B003900291002096
:1014700001908DF8030003984068019001984FF6A1
:10148000FF61CFF6F0710840019002990868097970
:1014900040EA0121019808430190019803994860AE
:1014A00003988068019001984FF2FD71CFF6F171B9
:1014B000084001900299C8688A681043497940EA57
:1014C00041010198084301900198039988600398AD
:1014D000C06A0190019820F4700001900298007C8D
:1014E000411E9DF8030008438DF803009DF803108A
:1014F000019840EA0150019001980399C86204B034
:101500007047000084B003908DF80B108DF80A200E
:101510008DF809300020019000909DF80B000A28FA
:1015200021DBFFE70398C06801909DF80B0000EBFA
:101530004000A0F11E01072088400090009901980A
:10154000884301909DF809009DF80B1001EB4101C3
:101550001E39884000900099019808430190019835
:101560000399C8601DE00398006901909DF80B0085
:1015700000EB4001072088400090009901988843C3
:1015800001909DF809009DF80B1001EB4101884086
:10159000009000990198084301900198039908610F
:1015A000FFE79DF80A00062820DCFFE70398406B60
:1015B00001909DF80A0000EB8000411F1F20884029
:1015C000009000990198884301909DF80B009DF8C8
:1015D0000A1001EB810105398840009000990198BB
:1015E0000843019001980399486347E09DF80A0079
:1015F0000C2821DCFFE70398006B01909DF80A009E
:1016000000EB8000A0F123011F208840009000998A
:101610000198884301909DF80B009DF80A1001EB9A
:101620008101233988400090009901980843019076
:1016300001980399086320E00398C06A01909DF81F
:101640000A0000EB8000A0F141011F2088400090BB
:1016500000990198884301909DF80B009DF80A10AD
:1016600001EB8101413988400090009901980843BD
:10167000019001980399C862FFE7FFE704B0704743
:1016800081B000900099886840F00800886001B03F
:101690007047000082B001908DF803109DF80300A0
:1016A00030B1FFE70199886840F4A000886005E048
:1016B0000199886820F4A0008860FFE702B07047B5
:1016C00081B000900099886840F00400886001B003
:1016D0007047000080B584B08DF80F009DF80F10A2
:1016E00042F20040C4F2010001900122029205235F
:1016F000FFF708FF01980299FFF7CCFFFFE742F2DE
:101700000040C4F201000221FFF77CFE08B9FFE7A8
:10171000F5E742F20040C4F20100FFF76BFE04B0AF
:1017200080BD000080B58AB04FF4007001210291A5
:1017300001F002FB0299042001F0FEFA4FF4004090
:1017400001F0E4FA002001908DF827000F20ADF899
:10175000240003208DF8260040F60000C4F20100AA
:1017600009A900F0BFF801990298049107914FF47C
:10177000602206928DF815108DF814108DF8200057
:1017800042F20040C4F20100039004A9FFF76CFE8E
:1017900002990398FFF700FE0398FFF771FFFFE738
:1017A00042F20040C4F20100FFF746FE012801D1D9
:1017B000FFE7F5E742F20040C4F20100FFF780FFC7
:1017C000FFE742F20040C4F20100FFF7FBFD0128F1
:1017D00001D1FFE7F5E70AB080BD0000FFE7FEE7B3
:1017E00081B08DF803009DF8030040F28201C2F23F
:1017F00000010B7840F27802C2F20002D05408785F
:1018000001300870087849F69A12C1F69912A0FBC7
:10181000023202EB8202A0EB4200087000208DF839
:1018200001008DF80200FFE79DF80200092817DC8F
:10183000FFE79DF8021040F27800C2F20000405C21
:10184000012806D1FFE79DF8010001308DF8010065
:10185000FFE7FFE79DF8020001308DF80200E3E7A3
:101860009DF8010001B0704781B0ADF80200BDF8ED
:101870000200A0F50060ADF80000BDF90000652889
:1018800006DBFFE7BDF800006438ADF8000010E0AB
:10189000BDF9000010F1650F06DCFFE7BDF80000A0
:1018A0006430ADF8000003E00020ADF80000FFE771
:1018B000FFE7BDF90000652100FB01F247F2B153DB
:1018C000C8F2806382FB033200FB0121880A00EB2F
:1018D000D170ADF800009DF9000001B07047000024
:1018E0007047000088B00790069100200590049092
:1018F00003900290019000900698C07800F00F00CD
:1019000005900698C078C006002806D5FFE706981F
:101910008178059808430590FFE70698007800282D
:101920004BD0FFE707980068019000200390FFE785
:10193000039807283DD8FFE70399012088400290CB
:1019400006980088029908400490049802998842F9
:101950002AD1FFE703988000029002990F20884067
:10196000009000990198884301900598029900FA27
:1019700001F10198084301900698C078282806D103
:10198000FFE7039901208840079948610BE006981A
:10199000C078482806D1FFE70399012088400799BD
:1019A0000861FFE7FFE7FFE7FFE7039801300390D7
:1019B000BEE7019807990860FFE706980088B0F530
:1019C000807F50DBFFE7079840680190002003907C
:1019D000FFE70398072842D8FFE7039800F10801C2
:1019E00001208840029006980088029908400490DF
:1019F0000498029988422DD1FFE703988000029055
:101A000002990F2088400090009901988843019026
:101A10000598029900FA01F101980843019006988F
:101A2000C078282808D1FFE7039800F108010120B9
:101A3000884007994861FFE70698C078482808D190
:101A4000FFE7039800F10801012088400799086129
:101A5000FFE7FFE7FFE7039801300390B9E701983C
:101A600007994860FFE708B07047000082B0019016
:101A7000ADF8021000208DF8010001988068BDF8D3
:101A80000210084204D0FFE701208DF8010003E0B6
:101A900000208DF80100FFE79DF8010002B07047BB
:101AA00082B00190ADF802108DF801209DF8010080
:101AB00028B1FFE7BDF802000199086104E0BDF814
:101AC000020001994861FFE702B07047FFE7FEE7B7
:101AD00081B040F28600C2F20000007870B1FFE7EA
:101AE00040F28601C2F2000108788DF80200002061
:101AF00008709DF802008DF8030003E000208DF8C7
:101B00000300FFE79DF8030001B0704780B582B085
:101B100040F60000C4F201004021FFF7A7FF20B902
:101B2000FFE701208DF8070095E040F60000C4F2C1
:101B300001008021FFF79AFF20B9FFE702208DF80E
:101B4000070088E040F60040C4F201000121FFF7E1
:101B50008DFF20B9FFE703208DF807007BE040F6FA
:101B60000040C4F201000221FFF780FF20B9FFE727
:101B700004208DF807006EE040F60040C4F201003A
:101B80000421FFF773FF20B9FFE705208DF8070058
:101B900061E040F60040C4F201004FF48061FFF7BD
:101BA00065FF20B9FFE706208DF8070053E040F6F7
:101BB0000000C4F201004FF40061FFF757FF20B9A5
:101BC000FFE707208DF8070045E040F60000C4F26B
:101BD00001004FF48051FFF749FF20B9FFE70820CB
:101BE0008DF8070037E040F60040C4F201002021E4
:101BF000FFF73CFF20B9FFE709208DF807002AE036
:101C000040F60040C4F201004021FFF72FFF20B949
:101C1000FFE70A208DF807001DE040F60000C4F23F
:101C200001001021FFF722FF20B9FFE70B208DF8FC
:101C3000070010E040F60000C4F201002021FFF789
:101C400015FF20B9FFE70C208DF8070003E0002006
:101C50008DF80700FFE79DF8070002B080BD000087
:101C600080B584B008200121019101F065F8019947
:101C7000042001F061F848208DF80F0041F6F000D3
:101C8000ADF80C0003208DF80E0040F60000C4F201
:101C9000010003A90291FFF725FE029940F2674077
:101CA000ADF80C0040F60040C4F20100FFF71AFE48
:101CB00004B080BD80B582B040F28700C2F200005F
:101CC000017801310170007814282CDBFFE740F225
:101CD0008701C2F200010020087040F28800C2F2C1
:101CE00000000190007840F28901C2F20001087002
:101CF000FFF70CFF014601980170007890B9FFE7EB
:101D000040F28900C2F20000007858B1FFE740F2CB
:101D10008900C2F20000007840F28601C2F20001A0
:101D20000870FFE7FFE702B080BD0000FFE7FEE7B5
:101D30007047000080B5002000F02AFAE22000F091
:101D40004BF9012000F024FA80BD000080B500208E
:101D500000F01EFAE12000F03FF9012000F018FA2F
:101D600080BD000080B586B008200121039100F0FD
:101D7000E3FF10208DF817004FF43840ADF8140041
:101D8000032000908DF8160040F60040C4F20100D8
:101D9000019005A90291FFF7A5FD009A019802990B
:101DA00048238DF817304FF48043ADF814308DF888
:101DB0001620FFF797FD0020049000F0D9F9039852
:101DC00000F0E6F9049800F003FA049800F0F0F946
:101DD00006B080BD80B584B0FFF7C4FF00200821A5
:101DE00000F006FA012000903F2100F001FA00996E
:101DF0000220029000F0FCF903210191084600F056
:101E0000F7F90199042000F0F3F9029905200390F5
:101E100000F0EEF906200E2100F0EAF91120202151
:101E200000F0E6F9039A40F20001C2F200010A2034
:101E300000F0F6F9FFF78AFFFFF77CFF072070211B
:101E400000F0D6F900F0A6F804B080BD80B540F6E9
:101E50000040C4F201004FF48041FFF707FE80BD4F
:101E600080B582B08DF80700002000F091F99DF850
:101E7000070000F0B1F8FF2000F0AEF88DF8060082
:101E8000012000F085F99DF8060002B080BD000039
:101E900080B584B003908DF80B100020019000F005
:101EA00077F9612000F098F801988DF80A00FFE7B3
:101EB0009DF80A009DF80B1088420EDAFFE7FF201C
:101EC00000F08AF803999DF80A208854FFE79DF8EE
:101ED0000A0001308DF80A00EAE7012000F058F905
:101EE00004B080BD80B582B0002000F051F9FF2021
:101EF00000F072F88DF80700012000F049F99DF814
:101F0000070002B080BD000080B582B0FFF7EAFF95
:101F10008DF807000020FFF7A3FF8DF806009DF85D
:101F200006008007002806D4FFE703208DF805008F
:101F3000FFF750FF29E09DF8070000F0300030283F
:101F400006D1FFE702208DF80500FFF743FF1BE0F5
:101F50009DF807004006002811D5FFE701208DF805
:101F6000050040F28D00C2F200002021FFF790FF33
:101F70000720402100F03CF9FFF7DCFE03E00020E1
:101F80008DF80500FFE7FFE7FFE79DF8050002B0C9
:101F900080BD000080B582B00020009000F0E8F81D
:101FA0000098FFF75DFF8DF807009DF80700FF28F8
:101FB00001D1FFE70EE09DF8070040F003008DF827
:101FC00007009DF80710002000F012F9012000F032
:101FD000CFF8FFE702B080BD80B582B08DF8070072
:101FE00000208DF80600FFE79DF8060007282BDC8F
:101FF000FFE79DF807000006002804D5FFE7012051
:1020000000F0D6F803E0002000F0D2F8FFE79DF8DA
:10201000070040008DF80700012000F0D9F8FFF715
:1020200015FF38B1FFE79DF8070040F001008DF87B
:102030000700FFE7002000F0CBF8FFE79DF806005F
:1020400001308DF80600CFE79DF8070002B080BD93
:1020500080B584B040F20501C2F200010091102069
:102060000522019200F0DCF80099019A0A2000F0A4
:10207000D7F840F2AD00C2F20000202100F0FEF8D7
:1020800000F04EF842F210700290FFE7FFF72AFFCF
:102090008DF80F00029801380290029830B9FFE7DE
:1020A00004208DF80E00FFF795FE25E09DF80F0047
:1020B00000F03000302806D1FFE703208DF80E0035
:1020C000FFF788FE18E09DF80F00C006002806D52F
:1020D000FFE702208DF80E00FFF77CFE0CE09DF874
:1020E0000F008006002804D5FFE701208DF80E00C0
:1020F00002E0FFE7FFE7C9E70720302100F078F8AA
:10210000FFF724FE40F20001C2F200010A2005227E
:1021100000F086F8FFF73EFF9DF80E0004B080BD8A
:1021200080B582B00020009000F022F80098FFF700
:1021300097FE8DF807009DF80700FF2801D1FFE703
:1021400014E09DF8070040F002008DF807009DF8AC
:10215000070000F0FE008DF807009DF80710002032
:1021600000F046F8012000F003F8FFE702B080BD60
:1021700080B582B08DF807009DF8072040F600403A
:10218000C4F201004FF40061FFF78AFC02B080BD89
:1021900080B582B08DF807009DF8072040F600401A
:1021A000C4F201004FF48051FFF77AFC02B080BD09
:1021B00080B582B08DF807009DF8072040F60040FA
:1021C000C4F201004FF40041FFF76AFC02B080BD89
:1021D00080B582B08DF807009DF8072040F60040DA
:1021E000C4F201004FF40051FFF75AFC02B080BD69
:1021F00080B582B08DF807008DF806100020FFF73B
:10220000C7FF9DF8070040F02000FFF7E5FE9DF8AE
:102210000600FFF7E1FE0120FFF7BAFF02B080BD24
:1022200080B584B08DF80F0002918DF80720002052
:102230000090FFF7ADFF9DF80F0040F02000FFF782
:10224000CBFE00988DF80600FFE79DF806009DF88C
:10225000071088420DDAFFE702989DF80610405CEF
:10226000FFF7BAFEFFE79DF8060001308DF8060083
:10227000EBE70120FFF78CFF04B080BD80B584B090
:1022800003908DF80B1000200190FFF781FFA02034
:10229000FFF7A2FE01988DF80A00FFE79DF80A00FB
:1022A0009DF80B1088420DDAFFE703989DF80A109D
:1022B000405CFFF791FEFFE79DF80A0001308DF8C2
:1022C0000A00EBE70120FFF763FF04B080BD0000C8
:1022D00084B003900020029001900F20009003989A
:1022E000C078B8B3FFE74EF60C50CEF2000000689D
:1022F000C043C0F3022002900298C0F10400019094
:1023000000980299C840009003984078019988404D
:102310000290039880780099014002980843029047
:102320000298000102900298039909784EF2004247
:10233000CEF2000288540398027802F01F010120B7
:1023400088401C2101EAD2014EF20012CEF20002B6
:1023500088500EE00398027802F01F0101208840A7
:102360001C2101EAD2014EF28012CEF20002885006
:10237000FFE704B07047000081B000900098002192
:10238000C0F2FA5108434EF60C51CEF2000108603B
:1023900001B0704781B000208DF80200FFE79DF882
:1023A0000200072823DCFFE700208DF80300FFE789
:1023B0009DF803007F2813DCFFE79DF8021040F230
:1023C000CD00C2F2000000EBC1119DF803200020F7
:1023D0008854FFE79DF8030001308DF80300E7E71C
:1023E000FFE79DF8020001308DF80200D7E701B049
:1023F0007047000083B0ADF80A00ADF808108DF802
:1024000007208DF80630BDF80800ADF80200FFE7A0
:10241000BDF90200BDF908109DF80620114488425C
:102420004ADAFFE7BDF80A00ADF80400FFE7BDF99E
:102430000400BDF90A109DF807201144884234DADF
:10244000FFE7BDF90400002828D4FFE7BDF9040028
:102450007F2823DCFFE7BDF9020000281ED4FFE738
:10246000BDF902003F2819DCFFE7BDF9020000EBCF
:10247000507121F00702821A012000FA02F36FF076
:10248000700000EA011140F2CD00C2F200000144E8
:10249000BDF90420885C98438854FFE7FFE7BDF846
:1024A00004000130ADF80400C1E7FFE7BDF8020009
:1024B0000130ADF80200ABE703B0704780B586B0DD
:1024C00000200590FFE70598C0087C2812D8FFE798
:1024D00000200490FFE70498C0087C2805D8FFE797
:1024E000FFE7049801300490F5E7FFE70598013015
:1024F0000590E8E708200121029100F01DFC14205E
:102500008DF80F0003208DF80E004FF48070ADF8A9
:102510000C0040F60040C4F20100009003A90191B4
:10252000FFF7E0F9009801994FF40072ADF80C2024
:10253000FFF7D8F9029800F089FB029800F096FBAB
:1025400006B080BD80B582B08DF8070000208DF800
:102550000600FFE79DF80600072816DCFFE79DF858
:1025600007009DF806108840C0B2C00900F07EFB4D
:10257000012000F06BFB002000F068FBFFE79DF8F6
:10258000060001308DF80600E4E7012000F05EFB54
:10259000002000F05BFB02B080BD000080B582B07F
:1025A0000120009000F062FB009800F04FFB00203B
:1025B000019000F05BFB019800F048FB02B080BD89
:1025C00080B582B0002000F051FB0120019000F0A6
:1025D0003DFB019800F04AFB02B080BD80B5FFF7DB
:1025E0006DFFAE2000F052FBD52000F04FFB8020A5
:1025F00000F04CFBA82000F049FB3F2000F046FB18
:10260000D32000F043FB002000F040FB402000F00E
:102610003DFBA12000F03AFBC82000F037FBDA2098
:1026200000F034FB122000F031FB812000F02EFB83
:10263000CF2000F02BFBD92000F028FBF12000F088
:1026400025FBDB2000F022FB302000F01FFBA42044
:1026500000F01CFBA62000F019FB8D2000F016FBFB
:10266000142000F013FBAF2000F010FBFFF792FEE8
:1026700000F0C8FA80BD000080B5C6B0ADF8160104
:10268000ADF814118DF81321439348A80290439993
:10269000029A03A80190FDF703FE019ABDF9160105
:1026A000BDF914119DF8133100F040F946B080BD1A
:1026B00080B582B08DF807008DF806109DF80700F0
:1026C00040F0B00000F0E2FA9DF80600000910307A
:1026D00000F0DCFA9DF8060000F00F0000F0D6FADA
:1026E00002B080BD80B584B0ADF80E00ADF80C101E
:1026F0008DF80B208DF80A309DF80A00082815D1B6
:10270000FFE7BDF90E00BDF90C109DF80B3044F247
:10271000D122C0F6000202EB0312A2F500726B4652
:102720001A600822102300F01FF81BE09DF80A0031
:10273000062816D1FFE7BDF90E00BDF90C109DF873
:102740000B2002EB420344F29702C0F6000202EBB8
:102750004302C03A6B461A600622082300F004F8D0
:10276000FFE7FFE704B080BD80B584B0DDF818C096
:10277000ADF80E00ADF80C108DF80B208DF80A3076
:10278000002000908DF809008DF80800BDF90E00BA
:10279000BDF90C109DF80B209DF80A30FFF72AFEBA
:1027A00000988DF80800FFE79DF808009DF80A10D2
:1027B000013901EB5172012101EBE201884280F203
:1027C000B280FFE700208DF80900FFE79DF80900BF
:1027D0009DF80B10884280F29F80FFE7BDF90E0044
:1027E0009DF809100844002800F18F80FFE7BDF92B
:1027F0000E009DF8091008447F2800F38680FFE74B
:10280000BDF90C0000EB5070C008ADF80600BDF932
:102810000C0000EB507121F00701401AADF80400E4
:10282000BDF90C00B0F1FF3F0BDCFFE7BDF806007F
:102830000138ADF80600BDF804000830ADF804001A
:10284000FFE7BDF906009DF808100844002826D4CB
:10285000FFE7BDF906009DF80810084407281EDCB4
:10286000FFE706989DF808109DF80B309DF80920A9
:1028700001FB0323C05CBDF9043000FA03F3BDF98A
:102880000600014440F2CD00C2F2000000EBC1118D
:10289000BDF90E000244885C18438854FFE7BDF977
:1028A00006009DF808100844013000282CD4FFE7EA
:1028B000BDF906009DF8081008440130072823DC04
:1028C000FFE706989DF808109DF80B209DF8093049
:1028D00001FB0232805CBDF90420C2F1080220FA3B
:1028E00002F2BDF90600014440F2CD00C2F2000040
:1028F00000EBC110BDF90E101944014491F880009D
:10290000104381F88000FFE7FFE7FFE79DF809002B
:1029100001308DF8090059E7FFE79DF80800013004
:102920008DF8080040E704B080BD000080B588B095
:10293000ADF81E00ADF81C1006928DF8173000207F
:10294000ADF814008DF80E00ADF80C00FFE7069806
:10295000BDF81410405C002800F05181FFE7069894
:10296000BDF81410405C0006002810D4FFE70120D9
:102970008DF80E000698BDF814104A1CADF814200E
:10298000405C8DF80F0000208DF81000B3E0069831
:10299000BDF81410405C00F0E000C02820D1FFE733
:1029A00002208DF80E000698BDF814104A1CADF8F0
:1029B0001420405C8DF80F000698BDF81410405CA0
:1029C00008B9FFE71BE10698BDF814104A1CADF8E2
:1029D0001420405C8DF8100000208DF8110089E073
:1029E0000698BDF81410405C00F0F000E02830D1EB
:1029F000FFE703208DF80E000698BDF814104A1C5E
:102A0000ADF81420405C8DF80F000698BDF8141046
:102A1000405C08B9FFE7F2E00698BDF814104A1CC4
:102A2000ADF81420405C8DF810000698BDF8141025
:102A3000405C08B9FFE7E2E00698BDF814104A1CB4
:102A4000ADF81420405C8DF8110000208DF81200C4
:102A50004FE00698BDF81410405C00F0F800F02834
:102A600040D1FFE704208DF80E000698BDF8141041
:102A70004A1CADF81420405C8DF80F000698BDF894
:102A80001410405C08B9FFE7B9E00698BDF81410CF
:102A90004A1CADF81420405C8DF810000698BDF873
:102AA0001410405C08B9FFE7A9E00698BDF81410BF
:102AB0004A1CADF81420405C8DF811000698BDF852
:102AC0001410405C08B9FFE799E00698BDF81410AF
:102AD0004A1CADF81420405C8DF8120000208DF8DF
:102AE000130005E0BDF814000130ADF814002EE726
:102AF000FFE7FFE7FFE79DF80E00012816D1FFE78B
:102B0000BDF81E00BDF80C100844BDF91C109DF85E
:102B10000F209DF8173000B2FFF7E4FD9DF8171065
:102B2000BDF80C000844ADF80C0067E00020ADF8DB
:102B30000A00FFE7BDF80A0043F69472C0F60002EF
:102B4000252100FB012044F61F11C0F60001FDF70E
:102B5000B9FBB8B1FFE7BDF80A0043F69472C0F6BE
:102B60000002252100FB01200DF10F01FDF7AAFB5A
:102B700008B9FFE706E0FFE7BDF80A000130ADF84D
:102B80000A00D7E79DF8170008281ED1FFE7BDF817
:102B90001E00BDF80C100844BDF91C10BDF80A2039
:102BA00043F6947CC0F6000C252302FB03C20532D9
:102BB0006B461A6000B210231A46FFF7D5FDBDF828
:102BC0000C001030ADF80C0017E09DF81700062837
:102BD00012D1FFE7BDF81E00BDF80C100844BDF986
:102BE0001C1000B23F220623FFF77CFDBDF80C004D
:102BF0000630ADF80C00FFE7FFE7FFE7A7E608B0F7
:102C000080BD000080B582B000208DF80700FFE78E
:102C10009DF80700072817DCFFE79DF80700002153
:102C2000FFF746FD9DF8071040F2CD00C2F200000C
:102C300000EBC110802100F03DF8FFE79DF8070090
:102C400001308DF80700E3E702B080BD80B582B0A7
:102C50008DF807009DF8072040F60040C4F20100FF
:102C60004FF48071FEF71CFF02B080BD80B582B0CA
:102C70008DF807009DF8072040F60040C4F20100DF
:102C80004FF40071FEF70CFF02B080BD80B582B03A
:102C90008DF80700FFF782FC7820FFF753FC002037
:102CA000FFF750FC9DF80700FFF74CFCFFF788FC8E
:102CB00002B080BD80B582B001908DF80310FFF79F
:102CC0006DFC7820FFF73EFC4020FFF73BFC002026
:102CD0008DF80200FFE79DF802009DF8031088427E
:102CE0000DDAFFE701989DF80210405CFFF72AFC1F
:102CF000FFE79DF8020001308DF80200EBE7FFF7D7
:102D00005FFC02B080BD00007047000082B00190FF
:102D10000020009041F20401C4F202010868009012
:102D2000009820F440400090019A009810430090D1
:102D30000098086002B0704782B001908DF80310CF
:102D40009DF8030048B1FFE7019A41F21801C4F26F
:102D5000020108681043086008E0019A41F2180176
:102D6000C4F20201086890430860FFE702B07047B0
:102D70007047000080B500F001F880BD84B00020ED
:102D80000390029041F20001C4F20201086840F48D
:102D900080300860FFE741F20000C4F202000068E2
:102DA00000F400300290039801300390FFE702998D
:102DB0000020019039B9FFE70398B0F5A06018BF73
:102DC00001200190FFE70198C0070028E3D1FFE749
:102DD00041F20000C4F2020000688003002803D51D
:102DE000FFE70120029002E000200290FFE7029836
:102DF000012851D1FFE742F20001C4F20201086844
:102E000040F010000860086820F0030008600868BF
:102E100040F00200086041F20401C4F20201009196
:102E20000868086008680860086840F48060086006
:102E3000086820F47C100860086840F4E810086016
:102E400041F20001C4F20201086840F0807008609D
:102E5000FFE741F20000C4F2020000688001002890
:102E600001D4FFE7F5E741F20401C4F2020108686A
:102E700020F003000860086840F002000860FFE7E7
:102E800041F20400C4F20200006800F00C000828BF
:102E900001D0FFE7F4E700E0FFE704B0704700006F
:102EA0007047000080B541F20002C4F202021068CF
:102EB00040F00100106041F20401C4F20201086810
:102EC0000023CFF6FF031840086010684FF6FF7329
:102ED000CFF6F66318401060106820F48020106070
:102EE000086820F4FE00086041F20801C4F2020103
:102EF0004FF41F000860FFF73DFF4EF60851CEF279
:102F000000014FF00060086080BD000080B542F60F
:102F10000040C4F20100012100F054F8012822D140
:102F2000FFE7FEF7C7FE40F2D240C2F20000018880
:102F300001310180008864280DDBFFE740F2D241B7
:102F4000C2F200010020088040F28301C2F20001B9
:102F500001200870FFE742F60040C4F201000121A1
:102F600000F00EF8FFE780BD82B00190ADF80210CE
:102F7000BDF80200C0430199088202B0704700000A
:102F800082B00190ADF80210BDF80200C043019973
:102F9000088202B07047000082B001908DF80310E3
:102FA0009DF8030030B1FFE70199088840F0010067
:102FB000088005E00199088820F001000880FFE7FB
:102FC00002B0704783B00290ADF8061000208DF873
:102FD0000500ADF80200ADF800000298008ABDF8C7
:102FE00006100840ADF8020002988089BDF806106E
:102FF0000840ADF80000BDF8020040B1FFE7BDF8A1
:10300000000020B1FFE701208DF8050003E000205B
:103010008DF80500FFE79DF8050003B0704700003C
:1030200082B00190ADF802108DF801209DF80100EA
:1030300038B1FFE7BDF802200199888910438881E3
:1030400006E0BDF802200199888990438881FFE756
:1030500002B0704781B000900099088920F0070005
:10306000088101B07047000083B0029001910020F8
:10307000ADF8020002980088ADF80200029842F60E
:103080000041C4F20101884225D0FFE7029843F2D3
:103090000041C4F2010188421DD0FFE70298B0F15F
:1030A000804F18D0FFE7029840F20041C4F20001BF
:1030B000884210D0FFE7029840F60001C4F20001F8
:1030C000884208D0FFE7029840F60041C4F20001B0
:1030D00088420ED1FFE7BDF8020020F07000ADF885
:1030E000020001984188BDF802000843ADF80200D3
:1030F000FFE7029841F20001C4F20001884216D0B5
:10310000FFE7029841F20041C4F2000188420ED06C
:10311000FFE7BDF8020020F44070ADF8020001980E
:10312000C188BDF802000843ADF80200FFE7BDF812
:103130000200029908800198808802998885019888
:10314000008802990885029842F60041C4F2010104
:10315000884220D0FFE7029843F20041C4F2010107
:10316000884218D0FFE7029844F20001C4F201013E
:10317000884210D0FFE7029844F20041C4F20101F6
:10318000884208D0FFE7029844F60001C4F201012A
:10319000884205D1FFE70198007A02990886FFE787
:1031A00002990120888203B07047000080B586B084
:1031B0004FF4006001210191FFF7BEFD42F600408F
:1031C000C4F201000090FFF745FF00980021ADF820
:1031D0001410ADF8101040F2E732ADF8122047227B
:1031E000ADF80E208DF816100DF10E01FFF73CFF23
:1031F00000980199FFF7B8FE0098019A1146FFF771
:103200000FFF4FF4A060FFF7B7F8019819218DF870
:103210000A108DF80D0002218DF80B108DF80C00AE
:103220000DF10A00FFF754F800980199FFF7B4FE7A
:1032300006B080BDFFE7FEE710B598B000201790FC
:10324000FFF7CCF9FEF7C6FDFEF70AFDFEF76AFAB6
:10325000FFF7ACFFFFE7FEF73BFC014640F28500BD
:10326000C2F200000170007858B1FFE740F285001B
:10327000C2F20000007840F28401C2F2000108703E
:10328000FFE740F28500C2F20000007809280CD167
:10329000FFE740F28C01C2F200010878B0FA80F03A
:1032A00040090870FFF776F8FFE70020FEF712FAF2
:1032B00040F27001C2F200010F9108800120FEF778
:1032C00009FA40F27201C2F2000110910880022056
:1032D000FEF700FA40F27401C2F200011191088079
:1032E0000320FEF7F7F901460F9840F27602C2F28A
:1032F0000002129211800088FEF7B6FA014610987B
:1033000040F28A02C2F2000211700088FEF7ACFAA5
:103310000146119840F28B02C2F20002117000883F
:10332000FEF7A2FA0146129840F2CD42C2F2000224
:1033300011700088FEF798FA40F2CE41C2F2000107
:10334000087040F28300C2F20000007801284DD1DD
:10335000FFE740F28C00C2F20000007840F2AD01BD
:10336000C2F20001087040F28A00C2F20000007848
:10337000487040F28B00C2F200000078887040F282
:10338000CD40C2F200000078C87040F2CE40C2F2D8
:1033900000000078087140F28400C2F2000000785A
:1033A0004871FEF755FE014640F2CF40C2F20000E0
:1033B0000E9001700078FEF713FA01460E9840F265
:1033C000D042C2F2000211700078012807D1FFE755
:1033D00040F28401C2F2000100200870FFE740F2D1
:1033E0008301C2F2000100200870FFE740F2D040E4
:1033F000C2F2000000786946086044F6C103C0F6D6
:103400000003002108220846FFF736F940F28C003D
:10341000C2F20000007800284BD1FFE740F28A009A
:10342000C2F2000090F900006946086044F6CA0341
:10343000C0F600030020099010210A9108220D9285
:10344000FFF71AF909980D9A40F28B01C2F20001B8
:1034500091F900106B46196044F6DC03C0F60003D6
:1034600020210C91FFF708F90A990D9A40F2CD40FE
:10347000C2F2000090F900006B46186044F6D303D6
:10348000C0F6000340200B90FFF7F6F80B980C995C
:103490000D9A40F2CE43C2F2000393F90030EC469D
:1034A000CCF8003044F6E503C0F60003FFF7E4F87B
:1034B00063E0FEF729FD01285ED1FFE740F28D00B1
:1034C000C2F2000000788DF85B009DF85B000228D6
:1034D00051D1FFE740F28D00C2F2000041788DF833
:1034E0005A1081788DF859104168159181681491AE
:1034F000C0681390159800F059FC0A4669464A6066
:10350000086044F61213C0F6000300200790102153
:1035100008220692FFF7B0F80798069A9DF95A100C
:103520009DF959C06B46C3F804C0196044F6EE0318
:10353000C0F600032021FFF79FF8149800F036FC36
:1035400008900591139800F031FCDDF814C0069A3C
:10355000864607980C4608996B46DC60C3F808E07D
:10356000C3F804C0196044F6FE03C0F6000330211E
:10357000FFF782F8FFE7FFE7FFE7FFF743FB6AE6A5
:103580005FEA400C08BF91F0000F4FEA8C234FEA2E
:10359000C12243EA51514FEA1C5018BF00F5F040D8
:1035A0004FEA300018BF41F000415FEA6C5C00F068
:1035B0002980BCF1FF3F08BF40F080407047130CEA
:1035C00006BF12044FF0100C4FF0000C130E04BF96
:1035D00012020CF1080C130F04BF12010CF1040CC1
:1035E000930F04BF92000CF1020CD30F04BF5200E2
:1035F0000CF1010C11464FF00002A0F11F00A0EBEE
:103600000C00704711F0004F08BF704731F00041C7
:103610003FF4D5AF0B0C06BF09044FF0100C4FF070
:10362000000C0B0E04BF09020CF1080C0B0F04BFB9
:1036300009010CF1040C8B0F04BF89000CF1020C82
:10364000CB0F04BF49000CF1010CCCF1200322FA8E
:1036500003F341EA030102FA0CF2A0EB0C0000F1C3
:103660000100704723F07F4720F07F4C80EA030081
:1036700000F00040ACEB070303F57C5303F1FF03BC
:103680002DE9804909B44FEA144324EA03484FEA7C
:10369000154B25EA0B4E0FF2042606EB13273E7856
:1036A00003FB0667C7F5000707FB06F64FEAD64699
:1036B00006F102064FEA543707FB066CCCF1005CBA
:1036C0004FEA1C472CEA074C0CFB06F507FB06F4F7
:1036D00004EB15464FEA961649085FEA320234BFFA
:1036E00000204FF000404FEAD13706FB07FC4FEABD
:1036F0001C4C0CFB0BF7D21B03FB0CF761EB070117
:103700000CFB0EF7B0EB074072EB17420CFB08F70F
:1037100034BFA2EB0742B2EB074261EB17414FEA1D
:103720000C444FEA910706FB07FC4FEA1C4C0CFBCC
:103730000BF7B0EBC74072EB573203FB0CF734BF0B
:10374000A2EBC742B2EBC74261EB57310CFB0EF75D
:10375000B0EBC70072EB57720CFB08F734BFA2EB5B
:10376000C702B2EBC70261EB57714FEA816141EAD0
:1037700092114FEA826242EA90124FEA806004EBB3
:10378000CC04039F4FEAD13706FB07FC4FEA1C4CE1
:103790000CFB0BF7D21B03FB0CF761EB07010CFBD7
:1037A0000EF7B0EB074072EB17420CFB08F734BF83
:1037B000A2EB0742B2EB074261EB17414FEA8C558F
:1037C00004EB9C244FEA910706FB07FC4FEA1C4CD4
:1037D0000CFB0BF7B0EBC74072EB573203FB0CF757
:1037E00034BFA2EBC742B2EBC74261EB57310CFBCF
:1037F0000EF7B0EBC70072EB57720CFB08F734BF43
:10380000A2EBC702B2EBC70261EB57714FEA8161CD
:1038100041EA92114FEA826242EA90124FEA8060D6
:1038200015EB4C2544F100044FEAD13706FB07FCA9
:103830004FEA1C4C0CFB0BF7D21B03FB0CF761EBA4
:1038400007010CFB0EF7B0EB074072EB17420CFBC5
:1038500008F734BFA2EB0742B2EB074261EB174116
:103860004FEA813141EA92414FEA823242EA904284
:103870004FEA80304FEA0C7615EB1C1544F100043A
:1038800048EA03434EEA0B484FF0000EB2EB080C37
:1038900071EB030724BF624639464EEB0E0E4FF024
:1038A000000B0018524149414BEB0B0BB2EB080CDB
:1038B00071EB03077BF1000B24BF624639464EEBE8
:1038C0000E0E4FF0000B0018524149414BEB0B0B11
:1038D000B2EB080C71EB03077BF1000B24BF6246CF
:1038E00039464EEB0E0E51EA020718BF46F00106AC
:1038F00016EB0E7655F1000254F1000103D5BDE838
:103900008901BDE80088BDE88901BDE80048B61915
:10391000524141EB0101A3F10103704780807F7E9A
:103920007D7C7B7A79787776767574737271717035
:103930006F6E6E6D6C6C6B6A6A69686867666665E7
:103940006464636362616160605F5F5E5E5D5D5C75
:103950005C5B5B5A5A5959585857575656555555E6
:103960005454535352525251515050504F4F4F4E46
:103970004E4D4D4D4C4C4C4B4B4B4A4A4A49494994
:1039800048484847474747464646454545444444D6
:103990004443434343424242424141419C46002BFF
:1039A00030D477002BD04FEA37071CB503B44FF063
:1039B00010004FF01001BAF1000F06D0BCF1000F5B
:1039C000DCBF40F0080040F008014FF000000FBCE1
:1039D000BDE810400BF1010BBBF1010F08BF5FEA1E
:1039E000170722BF12F1010211F101014FF000414E
:1039F00043F1000300F0004043EA00007047F9D3B0
:103A00005708D0E746EA06464FEA164613F1400F3C
:103A10001FDD13F1200FDFBF16430A4600212033BC
:103A20005B42BED0C3F1200746EA06464FEA16467F
:103A300002FA07F746EA070622FA03F2C3F1200763
:103A400001FA07F742EA070221FA03F14FF00003F7
:103A5000A7E746EA020646EA06464FEA164646EA5F
:103A60000106BCBF46EA0646360C4FF000034FF095
:103A700000024FF0000194E72DE9804C70B49A46A3
:103A8000934691E8380007C831EA400C48BF34EA51
:103A9000430C03D5FFF7E6FDFFF780FFF0BCBDE860
:103AA000008C2DE9804C70B49A46934691E838001A
:103AB00007C810F0804F08BF13F0804F03D100F00B
:103AC00005F8FFF76BFFF0BCBDE8008C20F07F47E6
:103AD00023F07F4C80EA030000F0004007EB0C036A
:103AE000A3F57C53A3F1FE0392F0000F00F0B38026
:103AF00095F0000F00F077802DE901494FEA114061
:103B000021EA00484FEA144624EA064700FB06FC77
:103B100008FB06F607FB08F818EB06484CEB164CBA
:103B200000FB07F718EB07484CEB17404FEA124B26
:103B300022EA0B4E4FEA154625EA06470BFB06FC28
:103B40000EFB06F607FB0EFE1EEB064E4CEB164C6C
:103B50000BFB07F71EEB074E4CEB174B18EB0B0854
:103B600040F1000018EB0E0B58EB000840F100008C
:103B70008F1A4FF000014FF000063CBFC943661B8F
:103B800014BFB5EB040C00213CBFC943F61B4FEA40
:103B9000174427EA04454FEA1C472CEA074C04FB6C
:103BA000076205FB07F70CFB05F616EB074642EB31
:103BB000174204FB0CFC16EB0C4642EB1C421BEBC1
:103BC000060658EB020241414EEA8E0E46EA9E0678
:103BD00001D5BDE80189B619524141EB0101A3F1BC
:103BE0000103BDE801894FEA144524EA05464FEA7E
:103BF000114721EA074C05FB07F406FB07F70CFB0E
:103C000006F111EB074144EB174405FB0CFC11EBEB
:103C10000C4144EB1C444FEA124722EA074C05FBD7
:103C200007F206FB07F70CFB06F616EB074642EB1E
:103C3000174205FB0CFC16EB0C4642EB1C456A18C0
:103C400054F1000148BF7047B619524141EB0101E0
:103C5000A3F10103704795F0000F37D04FEA1142EE
:103C600021EA02464FEA144724EA074C02FB07F117
:103C700006FB07F70CFB06F414EB074441EB174176
:103C800002FB0CFC14EB0C4441EB1C414FEA1547C2
:103C900025EA074C02FB07F506FB07F70CFB06F6C7
:103CA00016EB074645EB174502FB0CFC16EB0C46E2
:103CB00045EB1C42121951F1000148BF7047B6197B
:103CC000524141EB0101A3F1010370474FEA144552
:103CD00024EA05464FEA114721EA074C05FB07F1A4
:103CE00006FB07F70CFB06F212EB074241EB17410C
:103CF00005FB0CFC12EB0C4251EB1C414FF0000693
:103D000048BF7047921841EB0101A3F101037047CE
:103D1000490050EAC12018BF04204A0D18BF40F0E6
:103D2000010040F2FF72B2EB515F08BF40F00200A9
:103D3000012808BF0520704730380A2801D2012029
:103D4000704700207047000010B500290AD008789D
:103D5000002807D005487844FCF7B4FA002801D0C1
:103D6000002010BD0248784410BD0000EA0B00009E
:103D7000E20B000010B500290AD00878002807D00F
:103D800005487844FCF79EFA002801D0002010BDB9
:103D90000248784410BD0000DA0B0000D20B00008E
:103DA0000808A0F500114FEA3101704743004FEABF
:103DB000D30C4FEA3C0C43401FBF40070CF160514D
:103DC00013F0FE4F70471CF0006F03D10CF0004160
:103DD000002070470CF0004343EA507040EACC00EA
:103DE00010B500F00EF800BF000000924FEA00018D
:103DF000FFF7D6BF4FF00041A1F500214FF00000C2
:103E000070470EF1020E2EF0030E5EF8044B2442B2
:103E100004D44FEA4102B2F17F4F11D84FEA400378
:103E2000B3F17F4F0CD80ED14FEAD07C0CEB4C0C89
:103E30000CF1020CB2F17F4F08BF4CEBD17C04E0D7
:103E40004FF0080C01E04FEAD17C0CEB4C0324FA54
:103E500003F404F00704B4F1040C06D20EEB840C56
:103E6000BDE810404CF0010C6047DFE80CF007089B
:103E700002024FF00040A0F5800010BD084642004D
:103E800018BFD2F1807288BF00F0004010BDFCF76F
:103E900085BEFCF7B9BF0000000000000000000074
:103EA0003031323334353637383941424344454670
:103EB000403058003031323334353637383961626A
:103EC000636465664030780004000008000000006C
:103ED000000000020001000010303132333435366A
:103EE0003738396162636465667870003031323327
:103EF000343536373839414243444546585000003E
:103F000002400000000000A000000000054000008A
:103F1000000000C8000000000C4000000000409CB1
:103F200000000000194000000020BCBE000000009E
:103F300034400000BFC91B8E00000004B5400000E3
:103F4000504BCFD06607E2CF010000006C4100006B
:103F50003E8251AADFEEA73401000000D9420000E2
:103F6000DCB5A0E23A301F97FFFFFFFFB445000029
:103F7000FD25A0C8E9A3C14FFFFFFFFFFF3F0000E1
:103F80000000008000000000FF3F000000000080F3
:103F900000000000EFBC8C000000000000000000EA
:103FA0000000000000000000000000583800000081
:103FB000000000000000000000E38082000000001C
:103FC00000000000000000000000000000000000F1
:103FD0001824241800000000000000000000E4BDC8
:103FE000A00000008060F8074020180F08C80808EB
:103FF000281800010000FF00100C0340807F000122
:10400000061800E5A5BD00001010F01F10F000809C
:104010008282E2928A8680004022150816610000A2
:1040200040807F0000000000E4B8960000202020BF
:10403000FE2020FF202020FF202020200000000064
:104040007F404047444444474040400000E7958C4F
:104050000000000000FE929292FE929292FE0000FA
:10406000000008080484621E010001FE0204040826
:1040700008000000000000FF0101013109090909E1
:10408000897101010101FFFF80808080808096811D
:10409000808080808080FF00000000000000000021
:1040A0002F000000000700070000147F147F140099
:1040B000242A7F2A120023130864620036495522FD
:1040C0005000000007000000001C224100000041D9
:1040D000221C000014083E08140008083E080800CE
:1040E0000000A060000008080808080000606000E8
:1040F00000002010080402003E5149453E000042E5
:104100007F4000004261514946002141454B31004A
:104110001814127F10002745454539003C4A49498B
:104120003000017109050300364949493600064946
:1041300049291E00003636000000005636000000F7
:104140000814224100001414141414000041221415
:1041500008000201510906003E4955592E007C1203
:1041600011127C007F49494936003E4141412200FD
:104170007F4141221C007F49494941007F090909CB
:1041800001003E4149497A007F0808087F0000414C
:104190007F4100002040413F01007F081422410080
:1041A0007F40404040007F020C027F007F040810E7
:1041B0007F003E4141413E007F09090906003E4122
:1041C00051215E007F0919294600464949493100BD
:1041D00001017F0101003F4040403F001F2040207F
:1041E0001F003F4038403F00631408146300070875
:1041F00070080700615149454300007F41410000BC
:104200000204081020000041417F00000402010266
:1042100004004040404040000001020400002054DF
:10422000545478007F4844443800384444442000C3
:10423000384444487F00385454541800087E09011B
:10424000020018A4A4A47C007F08040478000044A1
:104250007D4000004080847D00007F1028440000E5
:1042600000417F4000007C04180478007C080404AE
:104270007800384444443800FC24242418001824CE
:104280002418FC007C0804040800485454542000FE
:10429000043F444020003C4040207C001C20402043
:1042A0001C003C4030403C004428102844001CA026
:1042B000A0A07C004464544C440000087F410000EE
:1042C00000007F00000000417F0800000804081083
:1042D00008000000000000000000000000000000D6
:1042E00000000000F8000000000000003330000073
:1042F0000000160E00160E00000000000000000076
:104300000040C07840C0784000043F04043F0404EB
:1043100000007088FC08300000001820FF211E00FB
:1043200000F008F000E018000000211C031E211E10
:104330000000F00888700000001E212324192721A6
:1043400010000000160E0000000000000000000039
:1043500000000000E01804020000000007182040E0
:104360000000020418E000000000402018070000D0
:1043700000404080F0804040000202010F01020234
:1043800000000000F0000000000101011F01010118
:1043900000000000000000000000B07000000000FD
:1043A0000000000000000000000001010101010107
:1043B000010000000000000000003030000000009C
:1043C0000000000000806018040060180601000072
:1043D0000000E010080810E000000F102020100F6F
:1043E00000001010F8000000000020203F202000F6
:1043F000000070080808887000003028242221304E
:104400000000300888884830000018202020110E55
:10441000000000C02010F8000000070424243F24FE
:104420000000F80888880808000019212020110ED3
:104430000000E0108888180000000F112020110EE5
:104440000000380808C83808000000003F000000DD
:10445000000070880808887000001C222121221C9E
:104460000000E010080810E0000000312222110FC7
:1044700000000000C0C0000000000000303000005C
:1044800000000000C0C0000000000080B07000000C
:1044900000000080402010080000010204081020E5
:1044A0000040404040404040000404040404040430
:1044B00000000810204080000000201008040201C5
:1044C00000007048080808F00000000030360100C5
:1044D00000C030C828E810E0000718272423140B78
:1044E000000000C038E0000000203C230202273812
:1044F0002008F8888888700000203F202020110EB6
:1045000000C03008080808380007182020201008CC
:104510000008F808080810E000203F202020100FB5
:104520000008F88888E8081000203F202023201881
:104530000008F88888E8081000203F2000030000E9
:1045400000C03008080838000007182020221E028A
:104550000008F808000008F808203F210101213F69
:1045600020000808F8080800000020203F20200054
:104570000000000808F8080800C08080807F000064
:104580000008F888C028180800203F20012638209D
:104590000008F8080000000000203F202020203004
:1045A0000008F8F800F8F80800203F003F003F201E
:1045B0000008F830C00008F808203F200007183F26
:1045C00000E01008080810E0000F10202020100F55
:1045D0000008F808080808F000203F210101010048
:1045E00000E01008080810E0000F18242438504F8D
:1045F0000008F8888888887000203F2000030C306D
:104600002000708808080838000038202121221C6A
:1046100000180808F8080818000000203F200000D3
:104620000008F808000008F808001F202020201FBC
:10463000000878880000C83808000007380E01001C
:1046400000F80800F80008F800033C0700073C03E6
:1046500000081868808068180820302C03032C306C
:10466000200838C800C83808000000203F2000009B
:104670000010080808C83808002038262120201813
:1046800000000000FE020202000000007F404040E7
:1046900000000C30C000000000000000010638C01F
:1046A0000000020202FE000000004040407F0000C7
:1046B0000000201008040810200000000000000086
:1046C000000000000000000000808080808080806A
:1046D000800002040800000000000000000000004C
:1046E0000000008080808000000019242222223FE8
:1046F0002008F8008080000000003F112020110EEB
:10470000000000008080800000000E112020201199
:1047100000000000808088F800000E112020103F6B
:10472000200000808080800000001F2222222213AF
:1047300000008080F0888888180020203F2020001A
:10474000000000808080808000006B9494949360CF
:104750000008F8008080800000203F210000203FFA
:104760002000809898000000000020203F202000BA
:1047700000000000809898000000C08080807F00CA
:104780000008F8000080808000203F24022D3020A7
:1047900000000808F8000000000020203F20200052
:1047A000008080808080808000203F20003F2000AB
:1047B0003F008080008080000000203F2100203FDB
:1047C000200000808080800000001F202020201F0B
:1047D00000808000808000000080FFA12020110E5A
:1047E000000000008080808000000E112020A0FFCB
:1047F00080808080008080800020203F2120000178
:10480000000000808080808000003324242424194C
:1048100000008080E0808000000000001F20200059
:10482000008080000000808000001F202020103FBA
:1048300020808080000080808000010E300806010A
:104840000080800080008080800F300C030C300FCF
:104850000000808000808080000020312E0E3120FA
:1048600000808080000080808080818E701806012A
:104870000000808080808080000021302C22213048
:104880000000000000807C020200000000003F40A9
:104890004000000000FF00000000000000FF0000DA
:1048A000000002027C800000000040403F00000049
:1048B00000008040408000008000000000000101F6
:1048C000005369673A25303264004C483A252B3052
:1048D00034640052483A252B303464004C563A2553
:1048E0002B3034640052563A252B30346400505734
:1048F0004D3A252B30356420252B3035640053701C
:10490000643A252B30352E316620252B30352E315B
:104910006600416E676C653A252B30362E31660095
:10492000704A00080000002010000000500100083C
:10493000804A000810000020C80A0000700100082A
:104940001C00000043000000F8FFFFFF0C00000007
:104950000E0000000F0000002E00000010010000FB
:1049600043000000F8FFFFFF00404040404040404F
:104970004040414141414140404040404040404032
:1049800040404040404040404005020202020202D6
:104990000202020202020202022020202020202025
:1049A0002020200202020202020290909090909039
:1049B00010101010101010101010101010101010F7
:1049C000101010100202020202028888888888886B
:1049D0000808080808080808080808080808080857
:1049E000080808080202020240000000000000005F
:1049F00000000000000000000000000000000000B7
:104A000000000000000000000000000000000000A6
:104A10000000000000000000000000000000000096
:104A20000000000000000000000000000000000086
:104A30000000000000000000000000000000000076
:104A40000000000000000000000000000000000066
:104A50000000000000000000000000000000000056
:104A60000000000000000000000000000000000046
:104A70001122334455112233445500000000000038
:04000005080000ED02
:00000001FF
